{
  "_format": "hh-sol-artifact-1",
  "contractName": "ContributeContract",
  "sourceName": "contracts/Contribute.sol",
  "abi": [
    {
      "inputs": [
        {
          "internalType": "address",
          "name": "_token",
          "type": "address"
        },
        {
          "internalType": "address",
          "name": "_tokenAccepted",
          "type": "address"
        },
        {
          "internalType": "uint256",
          "name": "_minTokenAccepted",
          "type": "uint256"
        }
      ],
      "stateMutability": "nonpayable",
      "type": "constructor"
    },
    {
      "anonymous": false,
      "inputs": [
        {
          "indexed": false,
          "internalType": "uint256",
          "name": "projectId",
          "type": "uint256"
        },
        {
          "indexed": false,
          "internalType": "uint256",
          "name": "totalAddress",
          "type": "uint256"
        },
        {
          "indexed": false,
          "internalType": "uint256",
          "name": "total",
          "type": "uint256"
        }
      ],
      "name": "AllocateLeverages",
      "type": "event"
    },
    {
      "anonymous": false,
      "inputs": [
        {
          "indexed": true,
          "internalType": "address",
          "name": "user",
          "type": "address"
        },
        {
          "indexed": false,
          "internalType": "uint256",
          "name": "projectId",
          "type": "uint256"
        },
        {
          "indexed": false,
          "internalType": "uint256",
          "name": "amount",
          "type": "uint256"
        }
      ],
      "name": "Claim",
      "type": "event"
    },
    {
      "anonymous": false,
      "inputs": [
        {
          "indexed": true,
          "internalType": "address",
          "name": "previousOwner",
          "type": "address"
        },
        {
          "indexed": true,
          "internalType": "address",
          "name": "newOwner",
          "type": "address"
        }
      ],
      "name": "OwnershipTransferred",
      "type": "event"
    },
    {
      "anonymous": false,
      "inputs": [
        {
          "indexed": false,
          "internalType": "uint256",
          "name": "projectId",
          "type": "uint256"
        },
        {
          "indexed": false,
          "internalType": "uint256",
          "name": "duration",
          "type": "uint256"
        },
        {
          "indexed": false,
          "internalType": "uint256",
          "name": "rewardRate",
          "type": "uint256"
        },
        {
          "indexed": false,
          "internalType": "uint256",
          "name": "minAmount",
          "type": "uint256"
        },
        {
          "indexed": false,
          "internalType": "uint256",
          "name": "maxAmount",
          "type": "uint256"
        },
        {
          "indexed": false,
          "internalType": "enum ContributeContract.STATUS",
          "name": "status",
          "type": "uint8"
        }
      ],
      "name": "ProjectCreated",
      "type": "event"
    },
    {
      "anonymous": false,
      "inputs": [
        {
          "indexed": false,
          "internalType": "uint256",
          "name": "projectId",
          "type": "uint256"
        }
      ],
      "name": "ProjectUpdated",
      "type": "event"
    },
    {
      "anonymous": false,
      "inputs": [
        {
          "indexed": true,
          "internalType": "address",
          "name": "user",
          "type": "address"
        },
        {
          "indexed": false,
          "internalType": "uint256",
          "name": "projectId",
          "type": "uint256"
        },
        {
          "indexed": false,
          "internalType": "uint256",
          "name": "amount",
          "type": "uint256"
        }
      ],
      "name": "Queue",
      "type": "event"
    },
    {
      "anonymous": false,
      "inputs": [
        {
          "indexed": false,
          "internalType": "uint256",
          "name": "minTokenAccepted",
          "type": "uint256"
        }
      ],
      "name": "TokenAcceptedUpdated",
      "type": "event"
    },
    {
      "inputs": [
        {
          "internalType": "uint256",
          "name": "_projectId",
          "type": "uint256"
        }
      ],
      "name": "allocate",
      "outputs": [],
      "stateMutability": "nonpayable",
      "type": "function"
    },
    {
      "inputs": [
        {
          "internalType": "uint256",
          "name": "_minTokenAccepted",
          "type": "uint256"
        }
      ],
      "name": "changeMinimumTokenAccepted",
      "outputs": [],
      "stateMutability": "nonpayable",
      "type": "function"
    },
    {
      "inputs": [
        {
          "internalType": "uint256",
          "name": "_projectId",
          "type": "uint256"
        },
        {
          "internalType": "enum ContributeContract.STATUS",
          "name": "_status",
          "type": "uint8"
        }
      ],
      "name": "changeStatus",
      "outputs": [],
      "stateMutability": "nonpayable",
      "type": "function"
    },
    {
      "inputs": [
        {
          "internalType": "uint256",
          "name": "_projectId",
          "type": "uint256"
        }
      ],
      "name": "claim",
      "outputs": [],
      "stateMutability": "nonpayable",
      "type": "function"
    },
    {
      "inputs": [
        {
          "internalType": "uint256",
          "name": "_projectId",
          "type": "uint256"
        },
        {
          "internalType": "uint256",
          "name": "_duration",
          "type": "uint256"
        },
        {
          "internalType": "uint256",
          "name": "_rewardRate",
          "type": "uint256"
        },
        {
          "internalType": "uint256",
          "name": "_minAmount",
          "type": "uint256"
        },
        {
          "internalType": "uint256",
          "name": "_maxAmount",
          "type": "uint256"
        },
        {
          "internalType": "enum ContributeContract.STATUS",
          "name": "_status",
          "type": "uint8"
        }
      ],
      "name": "createProject",
      "outputs": [],
      "stateMutability": "nonpayable",
      "type": "function"
    },
    {
      "inputs": [
        {
          "internalType": "address",
          "name": "_address",
          "type": "address"
        },
        {
          "internalType": "uint256",
          "name": "_projectId",
          "type": "uint256"
        }
      ],
      "name": "getBalance",
      "outputs": [
        {
          "internalType": "uint256",
          "name": "",
          "type": "uint256"
        }
      ],
      "stateMutability": "view",
      "type": "function"
    },
    {
      "inputs": [
        {
          "internalType": "address",
          "name": "_address",
          "type": "address"
        },
        {
          "internalType": "uint256",
          "name": "_projectId",
          "type": "uint256"
        }
      ],
      "name": "getCalculateReward",
      "outputs": [
        {
          "internalType": "uint256",
          "name": "",
          "type": "uint256"
        }
      ],
      "stateMutability": "view",
      "type": "function"
    },
    {
      "inputs": [
        {
          "internalType": "address",
          "name": "_address",
          "type": "address"
        },
        {
          "internalType": "uint256",
          "name": "_projectId",
          "type": "uint256"
        }
      ],
      "name": "getCurrentReward",
      "outputs": [
        {
          "internalType": "uint256",
          "name": "",
          "type": "uint256"
        }
      ],
      "stateMutability": "view",
      "type": "function"
    },
    {
      "inputs": [
        {
          "internalType": "address",
          "name": "_address",
          "type": "address"
        },
        {
          "internalType": "uint256",
          "name": "_projectId",
          "type": "uint256"
        }
      ],
      "name": "getRemainingDuration",
      "outputs": [
        {
          "internalType": "uint256",
          "name": "",
          "type": "uint256"
        }
      ],
      "stateMutability": "view",
      "type": "function"
    },
    {
      "inputs": [
        {
          "internalType": "address",
          "name": "_address",
          "type": "address"
        },
        {
          "internalType": "uint256",
          "name": "_projectId",
          "type": "uint256"
        }
      ],
      "name": "getRewarPerDay",
      "outputs": [
        {
          "internalType": "uint256",
          "name": "",
          "type": "uint256"
        }
      ],
      "stateMutability": "view",
      "type": "function"
    },
    {
      "inputs": [],
      "name": "getTotalAllOfAmount",
      "outputs": [
        {
          "internalType": "uint256",
          "name": "",
          "type": "uint256"
        }
      ],
      "stateMutability": "view",
      "type": "function"
    },
    {
      "inputs": [
        {
          "internalType": "address",
          "name": "_address",
          "type": "address"
        }
      ],
      "name": "getTotalBalance",
      "outputs": [
        {
          "internalType": "uint256",
          "name": "",
          "type": "uint256"
        }
      ],
      "stateMutability": "view",
      "type": "function"
    },
    {
      "inputs": [
        {
          "internalType": "uint256",
          "name": "_projectId",
          "type": "uint256"
        }
      ],
      "name": "getTotalProjectAmount",
      "outputs": [
        {
          "internalType": "uint256",
          "name": "",
          "type": "uint256"
        }
      ],
      "stateMutability": "view",
      "type": "function"
    },
    {
      "inputs": [],
      "name": "owner",
      "outputs": [
        {
          "internalType": "address",
          "name": "",
          "type": "address"
        }
      ],
      "stateMutability": "view",
      "type": "function"
    },
    {
      "inputs": [
        {
          "internalType": "uint256",
          "name": "_projectId",
          "type": "uint256"
        },
        {
          "internalType": "uint256",
          "name": "_amount",
          "type": "uint256"
        }
      ],
      "name": "queuesUp",
      "outputs": [],
      "stateMutability": "nonpayable",
      "type": "function"
    },
    {
      "inputs": [],
      "name": "token",
      "outputs": [
        {
          "internalType": "contract IERC20",
          "name": "",
          "type": "address"
        }
      ],
      "stateMutability": "view",
      "type": "function"
    },
    {
      "inputs": [],
      "name": "tokenAccepted",
      "outputs": [
        {
          "internalType": "contract IERC20",
          "name": "",
          "type": "address"
        }
      ],
      "stateMutability": "view",
      "type": "function"
    },
    {
      "inputs": [
        {
          "internalType": "address",
          "name": "_newOwner",
          "type": "address"
        }
      ],
      "name": "transferOwnership",
      "outputs": [],
      "stateMutability": "nonpayable",
      "type": "function"
    }
  ],
  "bytecode": "0x60806040523480156200001157600080fd5b506040516200196538038062001965833981016040819052620000349162000094565b600080546001600160a01b03199081163317909155600491909155600180546001600160a01b0394851690831617905560028054929093169116179055620000d5565b80516001600160a01b03811681146200008f57600080fd5b919050565b600080600060608486031215620000aa57600080fd5b620000b58462000077565b9250620000c56020850162000077565b9150604084015190509250925092565b61188080620000e56000396000f3fe608060405234801561001057600080fd5b50600436106101155760003560e01c8063827f38cf116100a2578063c5a8a2ab11610071578063c5a8a2ab14610233578063cfa43f8114610246578063d3d3819314610259578063f2fde38b1461026c578063fc0c546a1461027f57600080fd5b8063827f38cf146101cf5780638da5cb5b146101fa5780638fdd61dc1461020d57806390ca796b1461022057600080fd5b80632b04e840116100e95780632b04e8401461017b5780633360e2eb1461018e578063379607f5146101965780634e7a4eea146101a95780637f5747a1146101bc57600080fd5b80629bb3a71461011a578063067c3c8f1461014057806307104562146101555780630792ea2514610168575b600080fd5b61012d61012836600461156b565b610292565b6040519081526020015b60405180910390f35b61015361014e366004611595565b6102a7565b005b61012d610163366004611595565b610315565b61012d61017636600461156b565b6103d0565b61012d61018936600461156b565b6103dc565b61012d610450565b6101536101a4366004611595565b610513565b6101536101b73660046115ae565b61076d565b61012d6101ca36600461156b565b610b53565b6002546101e2906001600160a01b031681565b6040516001600160a01b039091168152602001610137565b6000546101e2906001600160a01b031681565b61015361021b3660046115df565b610bd4565b61015361022e366004611595565b610da0565b610153610241366004611630565b610ff0565b61012d61025436600461156b565b611150565b61012d61026736600461165c565b61115c565b61015361027a36600461165c565b611203565b6001546101e2906001600160a01b031681565b600061029e83836112de565b90505b92915050565b6000546001600160a01b031633146102da5760405162461bcd60e51b81526004016102d190611677565b60405180910390fd5b60048190556040518181527f9238190bf9aad13e4b656f53fafae562062b08db851261992975ea7fcd60fdcb9060200160405180910390a150565b60008181526005602052604081206004015460ff166103465760405162461bcd60e51b81526004016102d1906116c1565b6000805b6000848152600760205260409020548110156103c95760008481526006602090815260408083206007909252822080549192918490811061038d5761038d6116ed565b60009182526020808320909101546001600160a01b031683528201929092526040019020600101546103bf9083611719565b915060010161034a565b5092915050565b600061029e838361138d565b60008181526005602052604081206004015460ff1661040d5760405162461bcd60e51b81526004016102d1906116c1565b610417828461141d565b610447575060008181526006602090815260408083206001600160a01b03861684529091529020600101546102a1565b50600092915050565b600080805b60035481101561050d57600060038281548110610474576104746116ed565b9060005260206000200154905060005b600082815260076020526040902054811015610503576000828152600660209081526040808320600790925282208054919291849081106104c7576104c76116ed565b60009182526020808320909101546001600160a01b031683528201929092526040019020600101546104f99085611719565b9350600101610484565b5050600101610455565b50919050565b60008181526005602052604090206004015460ff166105445760405162461bcd60e51b81526004016102d1906116c1565b60026000828152600560205260409020600490810154610100900460ff16908111156105725761057261172c565b1461058f5760405162461bcd60e51b81526004016102d190611742565b6000818152600660209081526040808320338452825280832054848452600590925282205490916105c3826201518061176a565b6105cd9084611719565b9050804210156106155760405162461bcd60e51b8152602060048201526013602482015272111d5c985d1a5bdb881b9bdd081c185cdcd959606a1b60448201526064016102d1565b6000848152600660209081526040808320338452909152902060010154806106705760405162461bcd60e51b815260206004820152600e60248201526d125b9d985b1a5908185b5bdd5b9d60921b60448201526064016102d1565b600061067c338761138d565b9050600061068a8284611719565b6001546000546040516323b872dd60e01b81526001600160a01b0391821660048201523360248201526044810184905292935016906323b872dd906064016020604051808303816000875af11580156106e7573d6000803e3d6000fd5b505050506040513d601f19601f8201168201806040525081019061070b9190611781565b506000878152600660209081526040808320338085529083528184206001019390935580518a81529182018690527f34fcbac0073d7c3d388e51312faf357774904998eeb8fca628b9e6f65ee1cbf7910160405180910390a250505050505050565b60008281526005602052604090206004015460ff1661079e5760405162461bcd60e51b81526004016102d1906116c1565b60016000838152600560205260409020600490810154610100900460ff16908111156107cc576107cc61172c565b146107e95760405162461bcd60e51b81526004016102d190611742565b600081116108395760405162461bcd60e51b815260206004820181905260248201527f416d6f756e74206d7573742062652067726561746572207468616e207a65726f60448201526064016102d1565b60008281526005602052604090206002015481101561089a5760405162461bcd60e51b815260206004820152601d60248201527f416d6f756e742069732062656c6f77206d696e696d756d207374616b6500000060448201526064016102d1565b6000828152600560205260409020600301548111156108fb5760405162461bcd60e51b815260206004820152601c60248201527f416d6f756e742065786365656473206d6178696d756d207374616b650000000060448201526064016102d1565b600480546002546040516370a0823160e01b8152339381019390935290916001600160a01b03909116906370a0823190602401602060405180830381865afa15801561094b573d6000803e3d6000fd5b505050506040513d601f19601f8201168201806040525081019061096f91906117aa565b10156109d05760405162461bcd60e51b815260206004820152602a60248201527f596f7520646f6e742068617665207175697465206d696e696d756d20746f6b656044820152691b881858d8d95c1d195960b21b60648201526084016102d1565b60015460405163095ea7b360e01b8152306004820152602481018390526001600160a01b039091169063095ea7b3906044016020604051808303816000875af1158015610a21573d6000803e3d6000fd5b505050506040513d601f19601f82011682018060405250810190610a459190611781565b610a835760405162461bcd60e51b815260206004820152600f60248201526e105c1c1c9bdd985b0819985a5b1959608a1b60448201526064016102d1565b6040805160608101825242815260208082018481526001838501818152600088815260068552868120338083529552959095209351845590519083015591516002909101805460ff1916911515919091179055610ae190839061141d565b610b145760008281526007602090815260408220805460018101825590835291200180546001600160a01b031916331790555b604080518381526020810183905233917f551fa75672f5eb70161a7f53a15a239a169b141a0240b4ab883166fbe8b5876f910160405180910390a25050565b60008181526005602052604081206004015460ff16610b845760405162461bcd60e51b81526004016102d1906116c1565b60008281526005602052604081205490610b9e85856112de565b90506000610bac8686611499565b90506000610bba83856117c3565b90506000610bc8838361176a565b98975050505050505050565b6000546001600160a01b03163314610bfe5760405162461bcd60e51b81526004016102d190611677565b60008681526005602052604090206004015460ff1615610c605760405162461bcd60e51b815260206004820152601960248201527f50726f6a65637420494420616c7265616479206578697374730000000000000060448201526064016102d1565b6040518060c00160405280868152602001858152602001848152602001838152602001600115158152602001826004811115610c9e57610c9e61172c565b9052600087815260056020908152604091829020835181559083015160018201559082015160028201556060820151600382015560808201516004808301805492151560ff1984168117825560a086015193919261ff001990911661ffff199092169190911790610100908490811115610d1a57610d1a61172c565b021790555050600380546001810182556000919091527fc2575a0e9e593c00f959f8c92f12db2869c3395a3b0502d05e2516446f71f85b01879055506040517f57fe0c6a4a4b8fcf233cb4dc6fdbb782f501a048adfcf0a9d4fb9f56ebc79fae90610d90908890889088908890889088906117d6565b60405180910390a1505050505050565b6000546001600160a01b03163314610dca5760405162461bcd60e51b81526004016102d190611677565b60008181526005602052604090206004015460ff16610dfb5760405162461bcd60e51b81526004016102d1906116c1565b60026000828152600560205260409020600490810154610100900460ff1690811115610e2957610e2961172c565b03610e465760405162461bcd60e51b81526004016102d190611742565b60008181526007602052604081205490805b82811015610f8b576000848152600760205260408120805483908110610e8057610e806116ed565b6000918252602080832091909101548783526006825260408084206001600160a01b0390921680855291909252912060018101546002909101549192509060ff1615610f81576001546040516323b872dd60e01b81526001600160a01b03848116600483015230602483015260448201849052909116906323b872dd906064016020604051808303816000875af1158015610f1f573d6000803e3d6000fd5b505050506040513d601f19601f82011682018060405250810190610f439190611781565b5060008681526006602090815260408083206001600160a01b03861684529091529020428155600201805460ff19169055610f7e8185611719565b93505b5050600101610e58565b50600083815260056020908152604091829020600401805461ff001916610200179055815185815290810184905280820183905290517ff5e34c28d983ef252cd172845d7d1890d8dacd50177875919a3bcbc37a585a139181900360600190a1505050565b6000546001600160a01b0316331461101a5760405162461bcd60e51b81526004016102d190611677565b60008281526005602052604090206004015460ff1661104b5760405162461bcd60e51b81526004016102d1906116c1565b80600481111561105d5761105d61172c565b6000838152600560205260409020600490810154610100900460ff16908111156110895761108961172c565b036110e05760405162461bcd60e51b815260206004820152602160248201527f50726f6a6563742073746174757320697320616c7265616479206368616e67656044820152601960fa1b60648201526084016102d1565b600082815260056020526040902060049081018054839261ff0019909116906101009084908111156111145761111461172c565b02179055506040518281527fda124279e8f8c56d142d1f8d79ba312ac54eb788b54f07b8040ff61eaf2110099060200160405180910390a15050565b600061029e8383611499565b600080805b6003548110156103c95761119260038281548110611181576111816116ed565b90600052602060002001548561141d565b6111fb5760066000600383815481106111ad576111ad6116ed565b906000526020600020015481526020019081526020016000206000856001600160a01b03166001600160a01b0316815260200190815260200160002060010154826111f89190611719565b91505b600101611161565b6000546001600160a01b0316331461122d5760405162461bcd60e51b81526004016102d190611677565b6001600160a01b0381166112835760405162461bcd60e51b815260206004820152601960248201527f496e76616c6964206e6577206f776e657220616464726573730000000000000060448201526064016102d1565b600080546040516001600160a01b03808516939216917f8be0079c531659141344cd1fd0a4f28419497f9722a3daafe3b4186f6b6457e091a3600080546001600160a01b0319166001600160a01b0392909216919091179055565b60008181526005602052604081206004015460ff1661130f5760405162461bcd60e51b81526004016102d1906116c1565b60008281526006602090815260408083206001600160a01b03871684528252808320548584526005909252822054909161134c826201518061176a565b6113569084611719565b905080421061136b57600093505050506102a1565b6201518061137942836117c3565b6113839190611828565b93505050506102a1565b60008181526005602052604081206004015460ff166113be5760405162461bcd60e51b81526004016102d1906116c1565b60008281526006602090815260408083206001600160a01b0387168452825280832060019081015486855260059093529083200154909168056bc75e2d63100000611409838561176a565b6114139190611828565b9695505050505050565b6000805b60008481526007602052604090205481101561148f57600084815260076020526040902080546001600160a01b038516919083908110611463576114636116ed565b6000918252602090912001546001600160a01b0316036114875760019150506102a1565b600101611421565b5060009392505050565b60008181526005602052604081206004015460ff166114ca5760405162461bcd60e51b81526004016102d1906116c1565b60008281526006602090815260408083206001600160a01b0387168452825280832060019081015486855260059093529083200154909161150b86866112de565b90506000811161152157600093505050506102a1565b600068056bc75e2d63100000611537848661176a565b6115419190611828565b90506000610bc88383611828565b80356001600160a01b038116811461156657600080fd5b919050565b6000806040838503121561157e57600080fd5b6115878361154f565b946020939093013593505050565b6000602082840312156115a757600080fd5b5035919050565b600080604083850312156115c157600080fd5b50508035926020909101359150565b80356005811061156657600080fd5b60008060008060008060c087890312156115f857600080fd5b863595506020870135945060408701359350606087013592506080870135915061162460a088016115d0565b90509295509295509295565b6000806040838503121561164357600080fd5b82359150611653602084016115d0565b90509250929050565b60006020828403121561166e57600080fd5b61029e8261154f565b6020808252602a908201527f4f6e6c7920636f6e7472616374206f776e65722063616e2063616c6c207468696040820152693990333ab731ba34b7b760b11b606082015260800190565b602080825260129082015271125b9d985b1a59081c1c9bda9958dd08125160721b604082015260600190565b634e487b7160e01b600052603260045260246000fd5b634e487b7160e01b600052601160045260246000fd5b808201808211156102a1576102a1611703565b634e487b7160e01b600052602160045260246000fd5b6020808252600e908201526d496e76616c69642073746174757360901b604082015260600190565b80820281158282048414176102a1576102a1611703565b60006020828403121561179357600080fd5b815180151581146117a357600080fd5b9392505050565b6000602082840312156117bc57600080fd5b5051919050565b818103818111156102a1576102a1611703565b600060c0820190508782528660208301528560408301528460608301528360808301526005831061181757634e487b7160e01b600052602160045260246000fd5b8260a0830152979650505050505050565b60008261184557634e487b7160e01b600052601260045260246000fd5b50049056fea2646970667358221220837b03c1a5b4ed8b6cb4cdcb392ae2968c4292600019ff98440cad28d090015064736f6c63430008180033",
  "linkReferences": {},
  "deployedLinkReferences": {}
}