{
  "_format": "hh-sol-artifact-1",
  "contractName": "MultiTokenDonation",
  "sourceName": "contracts/MultiDonation.sol",
  "abi": [
    {
      "inputs": [],
      "stateMutability": "nonpayable",
      "type": "constructor"
    },
    {
      "anonymous": false,
      "inputs": [
        {
          "indexed": true,
          "internalType": "address",
          "name": "donor",
          "type": "address"
        },
        {
          "indexed": true,
          "internalType": "address",
          "name": "token",
          "type": "address"
        },
        {
          "indexed": false,
          "internalType": "uint256",
          "name": "amount",
          "type": "uint256"
        },
        {
          "indexed": true,
          "internalType": "uint256",
          "name": "projectId",
          "type": "uint256"
        }
      ],
      "name": "DonationReceived",
      "type": "event"
    },
    {
      "inputs": [
        {
          "internalType": "address",
          "name": "token",
          "type": "address"
        },
        {
          "internalType": "uint256",
          "name": "amount",
          "type": "uint256"
        },
        {
          "internalType": "uint256",
          "name": "projectId",
          "type": "uint256"
        }
      ],
      "name": "donate",
      "outputs": [],
      "stateMutability": "nonpayable",
      "type": "function"
    },
    {
      "inputs": [
        {
          "internalType": "address",
          "name": "",
          "type": "address"
        },
        {
          "internalType": "uint256",
          "name": "",
          "type": "uint256"
        },
        {
          "internalType": "address",
          "name": "",
          "type": "address"
        }
      ],
      "name": "donations",
      "outputs": [
        {
          "internalType": "uint256",
          "name": "",
          "type": "uint256"
        }
      ],
      "stateMutability": "view",
      "type": "function"
    },
    {
      "inputs": [],
      "name": "owner",
      "outputs": [
        {
          "internalType": "address",
          "name": "",
          "type": "address"
        }
      ],
      "stateMutability": "view",
      "type": "function"
    },
    {
      "inputs": [
        {
          "internalType": "address",
          "name": "",
          "type": "address"
        },
        {
          "internalType": "uint256",
          "name": "",
          "type": "uint256"
        }
      ],
      "name": "totalDonations",
      "outputs": [
        {
          "internalType": "uint256",
          "name": "",
          "type": "uint256"
        }
      ],
      "stateMutability": "view",
      "type": "function"
    },
    {
      "inputs": [
        {
          "internalType": "address",
          "name": "newOwner",
          "type": "address"
        }
      ],
      "name": "transferOwnership",
      "outputs": [],
      "stateMutability": "nonpayable",
      "type": "function"
    }
  ],
  "bytecode": "0x608060405234801561001057600080fd5b50600080546001600160a01b031916331790556104e3806100326000396000f3fe608060405234801561001057600080fd5b50600436106100575760003560e01c806336a3559f1461005c5780638da5cb5b146100a0578063d435aaac146100cb578063d4632276146100f6578063f2fde38b1461010b575b600080fd5b61008d61006a3660046103a9565b600260209081526000938452604080852082529284528284209052825290205481565b6040519081526020015b60405180910390f35b6000546100b3906001600160a01b031681565b6040516001600160a01b039091168152602001610097565b61008d6100d93660046103e5565b600160209081526000928352604080842090915290825290205481565b61010961010436600461040f565b61011e565b005b610109610119366004610442565b6102c2565b600082116101855760405162461bcd60e51b815260206004820152602960248201527f446f6e6174696f6e20616d6f756e74206d7573742062652067726561746572206044820152687468616e207a65726f60b81b60648201526084015b60405180910390fd5b6000546040516323b872dd60e01b81523360048201526001600160a01b03918216602482015260448101849052908416906323b872dd906064016020604051808303816000875af11580156101de573d6000803e3d6000fd5b505050506040513d601f19601f820116820180604052508101906102029190610464565b506001600160a01b038316600090815260016020908152604080832084845290915281208054849290610236908490610486565b90915550506001600160a01b0383166000908152600260209081526040808320848452825280832033845290915281208054849290610276908490610486565b909155505060405182815281906001600160a01b0385169033907fce9409ee3dc10e35de83dda0f830e4a13935452188fe71a956b850ecb839425f9060200160405180910390a4505050565b6000546001600160a01b031633146103155760405162461bcd60e51b81526020600482015260166024820152752737ba103a34329031b7b73a3930b1ba1037bbb732b960511b604482015260640161017c565b6001600160a01b03811661036b5760405162461bcd60e51b815260206004820152601d60248201527f4e6577206f776e657220697320746865207a65726f2061646472657373000000604482015260640161017c565b600080546001600160a01b0319166001600160a01b0392909216919091179055565b80356001600160a01b03811681146103a457600080fd5b919050565b6000806000606084860312156103be57600080fd5b6103c78461038d565b9250602084013591506103dc6040850161038d565b90509250925092565b600080604083850312156103f857600080fd5b6104018361038d565b946020939093013593505050565b60008060006060848603121561042457600080fd5b61042d8461038d565b95602085013595506040909401359392505050565b60006020828403121561045457600080fd5b61045d8261038d565b9392505050565b60006020828403121561047657600080fd5b8151801515811461045d57600080fd5b808201808211156104a757634e487b7160e01b600052601160045260246000fd5b9291505056fea2646970667358221220ffc0825f8ab792f2192aa6105c14e6d864160647bec72ed95bd7c5c63c790eef64736f6c63430008180033",
  "linkReferences": {},
  "deployedLinkReferences": {}
}