{
  "_format": "hh-sol-artifact-1",
  "contractName": "StakingContract",
  "sourceName": "contracts/Stake.sol",
  "abi": [
    {
      "inputs": [
        {
          "internalType": "address",
          "name": "_token",
          "type": "address"
        }
      ],
      "stateMutability": "nonpayable",
      "type": "constructor"
    },
    {
      "anonymous": false,
      "inputs": [
        {
          "indexed": true,
          "internalType": "address",
          "name": "previousOwner",
          "type": "address"
        },
        {
          "indexed": true,
          "internalType": "address",
          "name": "newOwner",
          "type": "address"
        }
      ],
      "name": "OwnershipTransferred",
      "type": "event"
    },
    {
      "anonymous": false,
      "inputs": [
        {
          "indexed": false,
          "internalType": "uint256",
          "name": "planId",
          "type": "uint256"
        }
      ],
      "name": "PlanActivated",
      "type": "event"
    },
    {
      "anonymous": false,
      "inputs": [
        {
          "indexed": false,
          "internalType": "uint256",
          "name": "planId",
          "type": "uint256"
        },
        {
          "indexed": false,
          "internalType": "uint256",
          "name": "duration",
          "type": "uint256"
        },
        {
          "indexed": false,
          "internalType": "uint256",
          "name": "rewardRate",
          "type": "uint256"
        },
        {
          "indexed": false,
          "internalType": "uint256",
          "name": "minStake",
          "type": "uint256"
        },
        {
          "indexed": false,
          "internalType": "uint256",
          "name": "maxStake",
          "type": "uint256"
        }
      ],
      "name": "PlanCreated",
      "type": "event"
    },
    {
      "anonymous": false,
      "inputs": [
        {
          "indexed": false,
          "internalType": "uint256",
          "name": "planId",
          "type": "uint256"
        }
      ],
      "name": "PlanDeactivated",
      "type": "event"
    },
    {
      "anonymous": false,
      "inputs": [
        {
          "indexed": true,
          "internalType": "address",
          "name": "user",
          "type": "address"
        },
        {
          "indexed": false,
          "internalType": "uint256",
          "name": "planId",
          "type": "uint256"
        },
        {
          "indexed": false,
          "internalType": "uint256",
          "name": "amount",
          "type": "uint256"
        }
      ],
      "name": "Staked",
      "type": "event"
    },
    {
      "anonymous": false,
      "inputs": [
        {
          "indexed": true,
          "internalType": "address",
          "name": "user",
          "type": "address"
        },
        {
          "indexed": false,
          "internalType": "uint256",
          "name": "planId",
          "type": "uint256"
        },
        {
          "indexed": false,
          "internalType": "uint256",
          "name": "amount",
          "type": "uint256"
        }
      ],
      "name": "Unstaked",
      "type": "event"
    },
    {
      "inputs": [
        {
          "internalType": "uint256",
          "name": "planId",
          "type": "uint256"
        }
      ],
      "name": "activatePlan",
      "outputs": [],
      "stateMutability": "nonpayable",
      "type": "function"
    },
    {
      "inputs": [
        {
          "internalType": "uint256",
          "name": "planId",
          "type": "uint256"
        },
        {
          "internalType": "uint256",
          "name": "duration",
          "type": "uint256"
        },
        {
          "internalType": "uint256",
          "name": "rewardRate",
          "type": "uint256"
        },
        {
          "internalType": "uint256",
          "name": "minStake",
          "type": "uint256"
        },
        {
          "internalType": "uint256",
          "name": "maxStake",
          "type": "uint256"
        }
      ],
      "name": "createPlan",
      "outputs": [],
      "stateMutability": "nonpayable",
      "type": "function"
    },
    {
      "inputs": [
        {
          "internalType": "uint256",
          "name": "planId",
          "type": "uint256"
        }
      ],
      "name": "deactivatePlan",
      "outputs": [],
      "stateMutability": "nonpayable",
      "type": "function"
    },
    {
      "inputs": [
        {
          "internalType": "address",
          "name": "user",
          "type": "address"
        },
        {
          "internalType": "uint256",
          "name": "planId",
          "type": "uint256"
        }
      ],
      "name": "getCalculateReward",
      "outputs": [
        {
          "internalType": "uint256",
          "name": "",
          "type": "uint256"
        }
      ],
      "stateMutability": "view",
      "type": "function"
    },
    {
      "inputs": [
        {
          "internalType": "address",
          "name": "user",
          "type": "address"
        },
        {
          "internalType": "uint256",
          "name": "planId",
          "type": "uint256"
        }
      ],
      "name": "getCurrentReward",
      "outputs": [
        {
          "internalType": "uint256",
          "name": "",
          "type": "uint256"
        }
      ],
      "stateMutability": "view",
      "type": "function"
    },
    {
      "inputs": [
        {
          "internalType": "address",
          "name": "user",
          "type": "address"
        },
        {
          "internalType": "uint256",
          "name": "planId",
          "type": "uint256"
        }
      ],
      "name": "getRemainingDuration",
      "outputs": [
        {
          "internalType": "uint256",
          "name": "",
          "type": "uint256"
        }
      ],
      "stateMutability": "view",
      "type": "function"
    },
    {
      "inputs": [
        {
          "internalType": "address",
          "name": "user",
          "type": "address"
        },
        {
          "internalType": "uint256",
          "name": "planId",
          "type": "uint256"
        }
      ],
      "name": "getRewarPerDay",
      "outputs": [
        {
          "internalType": "uint256",
          "name": "",
          "type": "uint256"
        }
      ],
      "stateMutability": "view",
      "type": "function"
    },
    {
      "inputs": [],
      "name": "getTotalAllUserStaked",
      "outputs": [
        {
          "internalType": "uint256",
          "name": "",
          "type": "uint256"
        }
      ],
      "stateMutability": "view",
      "type": "function"
    },
    {
      "inputs": [
        {
          "internalType": "uint256",
          "name": "planId",
          "type": "uint256"
        }
      ],
      "name": "getTotalStakedAmount",
      "outputs": [
        {
          "internalType": "uint256",
          "name": "",
          "type": "uint256"
        }
      ],
      "stateMutability": "view",
      "type": "function"
    },
    {
      "inputs": [
        {
          "internalType": "address",
          "name": "user",
          "type": "address"
        }
      ],
      "name": "getUserStakedPlans",
      "outputs": [
        {
          "internalType": "uint256[]",
          "name": "",
          "type": "uint256[]"
        }
      ],
      "stateMutability": "view",
      "type": "function"
    },
    {
      "inputs": [
        {
          "internalType": "address",
          "name": "user",
          "type": "address"
        }
      ],
      "name": "getUserTotalStakedBalance",
      "outputs": [
        {
          "internalType": "uint256",
          "name": "",
          "type": "uint256"
        }
      ],
      "stateMutability": "view",
      "type": "function"
    },
    {
      "inputs": [],
      "name": "owner",
      "outputs": [
        {
          "internalType": "address",
          "name": "",
          "type": "address"
        }
      ],
      "stateMutability": "view",
      "type": "function"
    },
    {
      "inputs": [
        {
          "internalType": "uint256",
          "name": "planId",
          "type": "uint256"
        },
        {
          "internalType": "uint256",
          "name": "amount",
          "type": "uint256"
        }
      ],
      "name": "stake",
      "outputs": [],
      "stateMutability": "nonpayable",
      "type": "function"
    },
    {
      "inputs": [],
      "name": "token",
      "outputs": [
        {
          "internalType": "contract IERC20",
          "name": "",
          "type": "address"
        }
      ],
      "stateMutability": "view",
      "type": "function"
    },
    {
      "inputs": [
        {
          "internalType": "address",
          "name": "newOwner",
          "type": "address"
        }
      ],
      "name": "transferOwnership",
      "outputs": [],
      "stateMutability": "nonpayable",
      "type": "function"
    },
    {
      "inputs": [
        {
          "internalType": "uint256",
          "name": "planId",
          "type": "uint256"
        }
      ],
      "name": "unstake",
      "outputs": [],
      "stateMutability": "nonpayable",
      "type": "function"
    }
  ],
  "bytecode": "0x608060405234801561001057600080fd5b5060405161144238038061144283398101604081905261002f91610062565b60008054336001600160a01b031991821617909155600180549091166001600160a01b0392909216919091179055610092565b60006020828403121561007457600080fd5b81516001600160a01b038116811461008b57600080fd5b9392505050565b6113a1806100a16000396000f3fe608060405234801561001057600080fd5b50600436106100ff5760003560e01c80637f5747a111610097578063d4ea9e6211610066578063d4ea9e6214610217578063ddef02b81461022a578063f2fde38b1461023d578063fc0c546a1461025057600080fd5b80637f5747a1146101b35780638bc5ab70146101c65780638da5cb5b146101d9578063cfa43f811461020457600080fd5b80632e17de78116100d35780632e17de78146101655780634970a50d1461017a5780636174bc631461018d5780637b0472f0146101a057600080fd5b80629bb3a7146101045780630792ea251461012a57806309ae8c221461013d5780630b7c28f31461015d575b600080fd5b61011761011236600461112f565b610263565b6040519081526020015b60405180910390f35b61011761013836600461112f565b610278565b61015061014b366004611159565b610284565b6040516101219190611174565b610117610379565b6101786101733660046111b8565b6103ff565b005b6101786101883660046111d1565b610611565b61017861019b3660046111b8565b6107b1565b6101786101ae36600461120c565b610893565b6101176101c136600461112f565b610b2e565b6101176101d4366004611159565b610bb4565b6000546101ec906001600160a01b031681565b6040516001600160a01b039091168152602001610121565b61011761021236600461112f565b610c21565b6101786102253660046111b8565b610c2d565b6101176102383660046111b8565b610d08565b61017861024b366004611159565b610da7565b6001546101ec906001600160a01b031681565b600061026f8383610e82565b90505b92915050565b600061026f8383610f34565b60025460609060009067ffffffffffffffff8111156102a5576102a561122e565b6040519080825280602002602001820160405280156102ce578160200160208202803683370190505b50905060005b600254811015610372576001600160a01b0384166000908152600560205260408120600280548391908590811061030d5761030d611244565b9060005260206000200154815260200190815260200160002054111561036a576002818154811061034057610340611244565b906000526020600020015482828151811061035d5761035d611244565b6020026020010181815250505b6001016102d4565b5092915050565b600080805b6003548110156103f95760005b6002548110156103f05760056000600384815481106103ac576103ac611244565b60009182526020808320909101546001600160a01b0316835282810193909352604091820181208482529092529020546103e69084611270565b925060010161038b565b5060010161037e565b50919050565b60008181526004602081905260409091200154610100900460ff1661043f5760405162461bcd60e51b815260040161043690611283565b60405180910390fd5b3360009081526006602090815260408083208484528252808320546004909252822054909161047182620151806112ac565b61047b9084611270565b9050804210156104c35760405162461bcd60e51b8152602060048201526013602482015272111d5c985d1a5bdb881b9bdd081c185cdcd959606a1b6044820152606401610436565b336000908152600560209081526040808320878452909152902054806105235760405162461bcd60e51b81526020600482015260156024820152744e6f2062616c616e636520746f20756e7374616b6560581b6044820152606401610436565b600061052f3387610f34565b9050600061053d8284611270565b60015460405163a9059cbb60e01b8152336004820152602481018390529192506001600160a01b03169063a9059cbb906044016020604051808303816000875af115801561058f573d6000803e3d6000fd5b505050506040513d601f19601f820116820180604052508101906105b391906112c3565b503360008181526005602090815260408083208b845282528083209290925581518a81529081018690527f7fc4727e062e336010f2c282598ef5f14facb3de68cf8195c2f23e1454b2b74e910160405180910390a250505050505050565b6000546001600160a01b0316331461063b5760405162461bcd60e51b8152600401610436906112ec565b6000858152600460208190526040909120015460ff16156106975760405162461bcd60e51b8152602060048201526016602482015275506c616e20494420616c72656164792065786973747360501b6044820152606401610436565b6040805160c08101825285815260208082018681528284018681526060840186815260016080860181815260a0870182815260008e81526004978890528981209851895595518884015593516002808901919091559251600388015551959094018054925115156101000261ff00199615159690961661ffff199093169290921794909417905582549182018355919091527f405787fa12a823e0f2b7631cc41b3ba8828b3321ca811111fa75cd3aa3bb5ace01869055517f98386613dadc6c1f98cae9f49f0e62ec70d7172408602aa0b9670e9b96a2cd95906107a29087908790879087908790948552602085019390935260408401919091526060830152608082015260a00190565b60405180910390a15050505050565b6000546001600160a01b031633146107db5760405162461bcd60e51b8152600401610436906112ec565b6000818152600460208190526040909120015460ff1661083d5760405162461bcd60e51b815260206004820152601b60248201527f506c616e20494420697320616c726561647920696e61637469766500000000006044820152606401610436565b60008181526004602081905260409182902001805460ff19169055517f9d249762cccbda1c5e13d7d903a7fd4d9787cebc8b34172efbf22b612e90c14c906108889083815260200190565b60405180910390a150565b6000828152600460208190526040909120015460ff166108c55760405162461bcd60e51b815260040161043690611283565b600081116109155760405162461bcd60e51b815260206004820181905260248201527f416d6f756e74206d7573742062652067726561746572207468616e207a65726f6044820152606401610436565b6000828152600460205260409020600201548110156109765760405162461bcd60e51b815260206004820152601d60248201527f416d6f756e742069732062656c6f77206d696e696d756d207374616b650000006044820152606401610436565b6000828152600460205260409020600301548111156109d75760405162461bcd60e51b815260206004820152601c60248201527f416d6f756e742065786365656473206d6178696d756d207374616b65000000006044820152606401610436565b6001546040516323b872dd60e01b8152336004820152306024820152604481018390526001600160a01b03909116906323b872dd906064016020604051808303816000875af1158015610a2e573d6000803e3d6000fd5b505050506040513d601f19601f82011682018060405250810190610a5291906112c3565b5033600090815260056020908152604080832085845290915281208054839290610a7d908490611270565b90915550503360008181526006602090815260408083208684529091529020429055610aa890610fe2565b610aef57600380546001810182556000919091527fc2575a0e9e593c00f959f8c92f12db2869c3395a3b0502d05e2516446f71f85b0180546001600160a01b031916331790555b604080518381526020810183905233917f1449c6dd7851abc30abf37f57715f492010519147cc2652fbc38202c18a6ee90910160405180910390a25050565b600081815260046020819052604082200154610100900460ff16610b645760405162461bcd60e51b815260040161043690611283565b60008281526004602052604081205490610b7e8585610e82565b90506000610b8c8686611041565b90506000610b9a8385611336565b90506000610ba883836112ac565b98975050505050505050565b600080805b600254811015610372576001600160a01b03841660009081526005602052604081206002805491929184908110610bf257610bf2611244565b906000526020600020015481526020019081526020016000205482610c179190611270565b9150600101610bb9565b600061026f8383611041565b6000546001600160a01b03163314610c575760405162461bcd60e51b8152600401610436906112ec565b6000818152600460208190526040909120015460ff1615610cba5760405162461bcd60e51b815260206004820152601960248201527f506c616e20494420697320616c726561647920616374697665000000000000006044820152606401610436565b60008181526004602081905260409182902001805460ff19166001179055517f3be67444de8a08b1d6b0f58b68f3381d8acaba75f664fa050db8fbb344fe3231906108889083815260200190565b600081815260046020819052604082200154610100900460ff16610d3e5760405162461bcd60e51b815260040161043690611283565b6000805b600354811015610372576005600060038381548110610d6357610d63611244565b60009182526020808320909101546001600160a01b031683528281019390935260409182018120878252909252902054610d9d9083611270565b9150600101610d42565b6000546001600160a01b03163314610dd15760405162461bcd60e51b8152600401610436906112ec565b6001600160a01b038116610e275760405162461bcd60e51b815260206004820152601960248201527f496e76616c6964206e6577206f776e65722061646472657373000000000000006044820152606401610436565b600080546040516001600160a01b03808516939216917f8be0079c531659141344cd1fd0a4f28419497f9722a3daafe3b4186f6b6457e091a3600080546001600160a01b0319166001600160a01b0392909216919091179055565b600081815260046020819052604082200154610100900460ff16610eb85760405162461bcd60e51b815260040161043690611283565b6001600160a01b038316600090815260066020908152604080832085845282528083205460049092528220549091610ef382620151806112ac565b610efd9084611270565b9050804210610f125760009350505050610272565b62015180610f204283611336565b610f2a9190611349565b9350505050610272565b600081815260046020819052604082200154610100900460ff16610f6a5760405162461bcd60e51b815260040161043690611283565b6001600160a01b038316600090815260056020908152604080832085845282528083205460049092528220600101549091606482610fb0670de0b6b3a764000086611349565b610fba91906112ac565b610fc49190611349565b9050610fd881670de0b6b3a76400006112ac565b9695505050505050565b6000805b60035481101561103857826001600160a01b03166003828154811061100d5761100d611244565b6000918252602090912001546001600160a01b0316036110305750600192915050565b600101610fe6565b50600092915050565b600081815260046020819052604082200154610100900460ff166110775760405162461bcd60e51b815260040161043690611283565b6001600160a01b0383166000908152600560209081526040808320858452825280832054600490925282206001015490916110b28686610e82565b9050600081116110c85760009350505050610272565b60006110d5606484611349565b6110e7670de0b6b3a764000086611349565b6110f191906112ac565b905060006110ff8383611349565b9050610ba881670de0b6b3a76400006112ac565b80356001600160a01b038116811461112a57600080fd5b919050565b6000806040838503121561114257600080fd5b61114b83611113565b946020939093013593505050565b60006020828403121561116b57600080fd5b61026f82611113565b6020808252825182820181905260009190848201906040850190845b818110156111ac57835183529284019291840191600101611190565b50909695505050505050565b6000602082840312156111ca57600080fd5b5035919050565b600080600080600060a086880312156111e957600080fd5b505083359560208501359550604085013594606081013594506080013592509050565b6000806040838503121561121f57600080fd5b50508035926020909101359150565b634e487b7160e01b600052604160045260246000fd5b634e487b7160e01b600052603260045260246000fd5b634e487b7160e01b600052601160045260246000fd5b808201808211156102725761027261125a565b6020808252600f908201526e125b9d985b1a59081c1b185b881251608a1b604082015260600190565b80820281158282048414176102725761027261125a565b6000602082840312156112d557600080fd5b815180151581146112e557600080fd5b9392505050565b6020808252602a908201527f4f6e6c7920636f6e7472616374206f776e65722063616e2063616c6c207468696040820152693990333ab731ba34b7b760b11b606082015260800190565b818103818111156102725761027261125a565b60008261136657634e487b7160e01b600052601260045260246000fd5b50049056fea264697066735822122014e1133d73399ebb8e0a4e5ac9400ed2a6a1d7ea1b3153d82f6508031d2ff85b64736f6c63430008180033",
  "linkReferences": {},
  "deployedLinkReferences": {}
}