{
  "_format": "hh-sol-artifact-1",
  "contractName": "StakingContract",
  "sourceName": "contracts/Stake.sol",
  "abi": [
    {
      "inputs": [
        {
          "internalType": "address",
          "name": "_token",
          "type": "address"
        }
      ],
      "stateMutability": "nonpayable",
      "type": "constructor"
    },
    {
      "anonymous": false,
      "inputs": [
        {
          "indexed": true,
          "internalType": "address",
          "name": "previousOwner",
          "type": "address"
        },
        {
          "indexed": true,
          "internalType": "address",
          "name": "newOwner",
          "type": "address"
        }
      ],
      "name": "OwnershipTransferred",
      "type": "event"
    },
    {
      "anonymous": false,
      "inputs": [
        {
          "indexed": false,
          "internalType": "uint256",
          "name": "plainId",
          "type": "uint256"
        },
        {
          "indexed": false,
          "internalType": "uint256",
          "name": "duration",
          "type": "uint256"
        },
        {
          "indexed": false,
          "internalType": "uint256",
          "name": "rewardRate",
          "type": "uint256"
        }
      ],
      "name": "PlanCreated",
      "type": "event"
    },
    {
      "anonymous": false,
      "inputs": [
        {
          "indexed": false,
          "internalType": "uint256",
          "name": "planId",
          "type": "uint256"
        }
      ],
      "name": "PlanDeactivated",
      "type": "event"
    },
    {
      "anonymous": false,
      "inputs": [
        {
          "indexed": true,
          "internalType": "address",
          "name": "user",
          "type": "address"
        },
        {
          "indexed": false,
          "internalType": "uint256",
          "name": "planId",
          "type": "uint256"
        },
        {
          "indexed": false,
          "internalType": "uint256",
          "name": "amount",
          "type": "uint256"
        }
      ],
      "name": "Staked",
      "type": "event"
    },
    {
      "anonymous": false,
      "inputs": [
        {
          "indexed": true,
          "internalType": "address",
          "name": "user",
          "type": "address"
        },
        {
          "indexed": false,
          "internalType": "uint256",
          "name": "planId",
          "type": "uint256"
        },
        {
          "indexed": false,
          "internalType": "uint256",
          "name": "amount",
          "type": "uint256"
        }
      ],
      "name": "Unstaked",
      "type": "event"
    },
    {
      "inputs": [
        {
          "internalType": "uint256",
          "name": "planId",
          "type": "uint256"
        },
        {
          "internalType": "uint256",
          "name": "duration",
          "type": "uint256"
        },
        {
          "internalType": "uint256",
          "name": "rewardRate",
          "type": "uint256"
        }
      ],
      "name": "createPlan",
      "outputs": [],
      "stateMutability": "nonpayable",
      "type": "function"
    },
    {
      "inputs": [
        {
          "internalType": "uint256",
          "name": "planId",
          "type": "uint256"
        }
      ],
      "name": "deactivatePlan",
      "outputs": [],
      "stateMutability": "nonpayable",
      "type": "function"
    },
    {
      "inputs": [
        {
          "internalType": "address",
          "name": "user",
          "type": "address"
        },
        {
          "internalType": "uint256",
          "name": "planId",
          "type": "uint256"
        }
      ],
      "name": "getCalculateReward",
      "outputs": [
        {
          "internalType": "uint256",
          "name": "",
          "type": "uint256"
        }
      ],
      "stateMutability": "view",
      "type": "function"
    },
    {
      "inputs": [
        {
          "internalType": "address",
          "name": "user",
          "type": "address"
        },
        {
          "internalType": "uint256",
          "name": "planId",
          "type": "uint256"
        }
      ],
      "name": "getCurrentReward",
      "outputs": [
        {
          "internalType": "uint256",
          "name": "",
          "type": "uint256"
        }
      ],
      "stateMutability": "view",
      "type": "function"
    },
    {
      "inputs": [
        {
          "internalType": "address",
          "name": "user",
          "type": "address"
        },
        {
          "internalType": "uint256",
          "name": "planId",
          "type": "uint256"
        }
      ],
      "name": "getRemainingDuration",
      "outputs": [
        {
          "internalType": "uint256",
          "name": "",
          "type": "uint256"
        }
      ],
      "stateMutability": "view",
      "type": "function"
    },
    {
      "inputs": [
        {
          "internalType": "address",
          "name": "user",
          "type": "address"
        },
        {
          "internalType": "uint256",
          "name": "planId",
          "type": "uint256"
        }
      ],
      "name": "getRewarPerDay",
      "outputs": [
        {
          "internalType": "uint256",
          "name": "",
          "type": "uint256"
        }
      ],
      "stateMutability": "view",
      "type": "function"
    },
    {
      "inputs": [],
      "name": "getTotalAllUserStaked",
      "outputs": [
        {
          "internalType": "uint256",
          "name": "",
          "type": "uint256"
        }
      ],
      "stateMutability": "view",
      "type": "function"
    },
    {
      "inputs": [
        {
          "internalType": "uint256",
          "name": "planId",
          "type": "uint256"
        }
      ],
      "name": "getTotalStakedAmount",
      "outputs": [
        {
          "internalType": "uint256",
          "name": "",
          "type": "uint256"
        }
      ],
      "stateMutability": "view",
      "type": "function"
    },
    {
      "inputs": [
        {
          "internalType": "address",
          "name": "user",
          "type": "address"
        }
      ],
      "name": "getUserTotalStakedBalance",
      "outputs": [
        {
          "internalType": "uint256",
          "name": "",
          "type": "uint256"
        }
      ],
      "stateMutability": "view",
      "type": "function"
    },
    {
      "inputs": [],
      "name": "owner",
      "outputs": [
        {
          "internalType": "address",
          "name": "",
          "type": "address"
        }
      ],
      "stateMutability": "view",
      "type": "function"
    },
    {
      "inputs": [
        {
          "internalType": "uint256",
          "name": "planId",
          "type": "uint256"
        },
        {
          "internalType": "uint256",
          "name": "amount",
          "type": "uint256"
        }
      ],
      "name": "stake",
      "outputs": [],
      "stateMutability": "nonpayable",
      "type": "function"
    },
    {
      "inputs": [],
      "name": "token",
      "outputs": [
        {
          "internalType": "contract IERC20",
          "name": "",
          "type": "address"
        }
      ],
      "stateMutability": "view",
      "type": "function"
    },
    {
      "inputs": [
        {
          "internalType": "address",
          "name": "newOwner",
          "type": "address"
        }
      ],
      "name": "transferOwnership",
      "outputs": [],
      "stateMutability": "nonpayable",
      "type": "function"
    },
    {
      "inputs": [
        {
          "internalType": "uint256",
          "name": "planId",
          "type": "uint256"
        }
      ],
      "name": "unstake",
      "outputs": [],
      "stateMutability": "nonpayable",
      "type": "function"
    }
  ],
  "bytecode": "0x608060405234801561001057600080fd5b506040516110a83803806110a883398101604081905261002f91610062565b60008054336001600160a01b031991821617909155600180549091166001600160a01b0392909216919091179055610092565b60006020828403121561007457600080fd5b81516001600160a01b038116811461008b57600080fd5b9392505050565b611007806100a16000396000f3fe608060405234801561001057600080fd5b50600436106100e95760003560e01c80637f5747a11161008c578063cfa43f8111610066578063cfa43f81146101ce578063ddef02b8146101e1578063f2fde38b146101f4578063fc0c546a1461020757600080fd5b80637f5747a11461017d5780638bc5ab70146101905780638da5cb5b146101a357600080fd5b80632e17de78116100c85780632e17de781461012f5780634aec7384146101445780636174bc63146101575780637b0472f01461016a57600080fd5b80629bb3a7146100ee5780630792ea25146101145780630b7c28f314610127575b600080fd5b6101016100fc366004610dce565b61021a565b6040519081526020015b60405180910390f35b610101610122366004610dce565b61022f565b61010161023b565b61014261013d366004610df8565b6102c1565b005b610142610152366004610e11565b610462565b610142610165366004610df8565b6105a8565b610142610178366004610e3d565b610689565b61010161018b366004610dce565b610874565b61010161019e366004610e5f565b61093f565b6000546101b6906001600160a01b031681565b6040516001600160a01b03909116815260200161010b565b6101016101dc366004610dce565b61098d565b6101016101ef366004610df8565b610999565b610142610202366004610e5f565b610a38565b6001546101b6906001600160a01b031681565b60006102268383610b13565b90505b92915050565b60006102268383610bc5565b600080805b6002548110156102bb5760005b6003548110156102b257600660006004848154811061026e5761026e610e7a565b60009182526020808320909101546001600160a01b0316835282810193909352604091820181208482529092529020546102a89084610ea6565b925060010161024d565b50600101610240565b50919050565b600081815260056020526040902060020154610100900460ff166103005760405162461bcd60e51b81526004016102f790610eb9565b60405180910390fd5b336000908152600660209081526040808320848452909152902054806103605760405162461bcd60e51b81526020600482015260156024820152744e6f2062616c616e636520746f20756e7374616b6560581b60448201526064016102f7565b600061036c3384610bc5565b9050600061037a8284610ea6565b60015460405163a9059cbb60e01b8152336004820152602481018390529192506001600160a01b03169063a9059cbb906044016020604051808303816000875af11580156103cc573d6000803e3d6000fd5b505050506040513d601f19601f820116820180604052508101906103f09190610ee2565b503360009081526006602090815260408083208784529091528120819055600280549161041c83610f0b565b9091555050604080518581526020810185905233917f7fc4727e062e336010f2c282598ef5f14facb3de68cf8195c2f23e1454b2b74e910160405180910390a250505050565b6000546001600160a01b0316331461048c5760405162461bcd60e51b81526004016102f790610f22565b60008381526005602052604090206002015460ff16156104e75760405162461bcd60e51b8152602060048201526016602482015275506c616e20494420616c72656164792065786973747360501b60448201526064016102f7565b60408051608081018252838152602080820184815260018385018181526060850182815260008a81526005909552958420945185559151908401555160029092018054935115156101000261ff00199315159390931661ffff199094169390931791909117909155600380549161055d83610f6c565b909155505060408051848152602081018490529081018290527f3c23b7bbdb7ee0acd2bf877ca1c70aa85ad90f581c13076913998f20b6e1e9b99060600160405180910390a1505050565b6000546001600160a01b031633146105d25760405162461bcd60e51b81526004016102f790610f22565b60008181526005602052604090206002015460ff166106335760405162461bcd60e51b815260206004820152601b60248201527f506c616e20494420697320616c726561647920696e616374697665000000000060448201526064016102f7565b60008181526005602052604090819020600201805460ff19169055517f9d249762cccbda1c5e13d7d903a7fd4d9787cebc8b34172efbf22b612e90c14c9061067e9083815260200190565b60405180910390a150565b60008281526005602052604090206002015460ff166106ba5760405162461bcd60e51b81526004016102f790610eb9565b6000811161070a5760405162461bcd60e51b815260206004820181905260248201527f416d6f756e74206d7573742062652067726561746572207468616e207a65726f60448201526064016102f7565b6001546040516323b872dd60e01b8152336004820152306024820152604481018390526001600160a01b03909116906323b872dd906064016020604051808303816000875af1158015610761573d6000803e3d6000fd5b505050506040513d601f19601f820116820180604052508101906107859190610ee2565b50336000908152600660209081526040808320858452909152812080548392906107b0908490610ea6565b9091555050336000908152600760209081526040808320858452909152812042905560028054916107e083610f6c565b91905055506107ee33610c73565b61083557600480546001810182556000919091527f8a35acfbc15ff81a39ae7d344fd709f28e8600b4aa8c65c6b64bfe7fe36bd19b0180546001600160a01b031916331790555b604080518381526020810183905233917f1449c6dd7851abc30abf37f57715f492010519147cc2652fbc38202c18a6ee90910160405180910390a25050565b600081815260056020526040812060020154610100900460ff166108aa5760405162461bcd60e51b81526004016102f790610eb9565b6001600160a01b0383166000908152600760209081526040808320858452909152812054906108dc6201518083610f85565b6108e69042610fa7565b905060006108f48686610b13565b905060006109028787610cd2565b905060006109108385610fa7565b9050600061091e8383610fba565b905061093281670de0b6b3a7640000610fba565b9998505050505050505050565b600080805b600354811015610986576001600160a01b038416600090815260066020908152604080832084845290915290205461097c9083610ea6565b9150600101610944565b5092915050565b60006102268383610cd2565b600081815260056020526040812060020154610100900460ff166109cf5760405162461bcd60e51b81526004016102f790610eb9565b6000805b6002548110156109865760066000600483815481106109f4576109f4610e7a565b60009182526020808320909101546001600160a01b031683528281019390935260409182018120878252909252902054610a2e9083610ea6565b91506001016109d3565b6000546001600160a01b03163314610a625760405162461bcd60e51b81526004016102f790610f22565b6001600160a01b038116610ab85760405162461bcd60e51b815260206004820152601960248201527f496e76616c6964206e6577206f776e657220616464726573730000000000000060448201526064016102f7565b600080546040516001600160a01b03808516939216917f8be0079c531659141344cd1fd0a4f28419497f9722a3daafe3b4186f6b6457e091a3600080546001600160a01b0319166001600160a01b0392909216919091179055565b600081815260056020526040812060020154610100900460ff16610b495760405162461bcd60e51b81526004016102f790610eb9565b6001600160a01b038316600090815260076020908152604080832085845282528083205460059092528220549091610b848262015180610fba565b610b8e9084610ea6565b9050804210610ba35760009350505050610229565b62015180610bb14283610fa7565b610bbb9190610f85565b9350505050610229565b600081815260056020526040812060020154610100900460ff16610bfb5760405162461bcd60e51b81526004016102f790610eb9565b6001600160a01b038316600090815260066020908152604080832085845282528083205460059092528220600101549091606482610c41670de0b6b3a764000086610f85565b610c4b9190610fba565b610c559190610f85565b9050610c6981670de0b6b3a7640000610fba565b9695505050505050565b6000805b600454811015610cc957826001600160a01b031660048281548110610c9e57610c9e610e7a565b6000918252602090912001546001600160a01b031603610cc15750600192915050565b600101610c77565b50600092915050565b600081815260056020526040812060020154610100900460ff16610d085760405162461bcd60e51b81526004016102f790610eb9565b6001600160a01b038316600090815260066020908152604080832085845282528083205460059092528220600101549091610d438686610b13565b905060008111610d595760009350505050610229565b6000606483610d70670de0b6b3a764000087610f85565b610d7a9190610fba565b610d849190610f85565b90506000610d928383610f85565b9050610da681670de0b6b3a7640000610fba565b98975050505050505050565b80356001600160a01b0381168114610dc957600080fd5b919050565b60008060408385031215610de157600080fd5b610dea83610db2565b946020939093013593505050565b600060208284031215610e0a57600080fd5b5035919050565b600080600060608486031215610e2657600080fd5b505081359360208301359350604090920135919050565b60008060408385031215610e5057600080fd5b50508035926020909101359150565b600060208284031215610e7157600080fd5b61022682610db2565b634e487b7160e01b600052603260045260246000fd5b634e487b7160e01b600052601160045260246000fd5b8082018082111561022957610229610e90565b6020808252600f908201526e125b9d985b1a59081c1b185b881251608a1b604082015260600190565b600060208284031215610ef457600080fd5b81518015158114610f0457600080fd5b9392505050565b600081610f1a57610f1a610e90565b506000190190565b6020808252602a908201527f4f6e6c7920636f6e7472616374206f776e65722063616e2063616c6c207468696040820152693990333ab731ba34b7b760b11b606082015260800190565b600060018201610f7e57610f7e610e90565b5060010190565b600082610fa257634e487b7160e01b600052601260045260246000fd5b500490565b8181038181111561022957610229610e90565b808202811582820484141761022957610229610e9056fea26469706673582212201a21a1647858603c07eedabdf496f581a354880120de138a89b832ec398c667d64736f6c63430008180033",
  "linkReferences": {},
  "deployedLinkReferences": {}
}