{
  "_format": "hh-sol-artifact-1",
  "contractName": "StakingContract",
  "sourceName": "contracts/Stake.sol",
  "abi": [
    {
      "inputs": [
        {
          "internalType": "address",
          "name": "_token",
          "type": "address"
        }
      ],
      "stateMutability": "nonpayable",
      "type": "constructor"
    },
    {
      "anonymous": false,
      "inputs": [
        {
          "indexed": true,
          "internalType": "address",
          "name": "previousOwner",
          "type": "address"
        },
        {
          "indexed": true,
          "internalType": "address",
          "name": "newOwner",
          "type": "address"
        }
      ],
      "name": "OwnershipTransferred",
      "type": "event"
    },
    {
      "anonymous": false,
      "inputs": [
        {
          "indexed": false,
          "internalType": "uint256",
          "name": "planId",
          "type": "uint256"
        },
        {
          "indexed": false,
          "internalType": "uint256",
          "name": "duration",
          "type": "uint256"
        },
        {
          "indexed": false,
          "internalType": "uint256",
          "name": "rewardRate",
          "type": "uint256"
        },
        {
          "indexed": false,
          "internalType": "uint256",
          "name": "minStake",
          "type": "uint256"
        },
        {
          "indexed": false,
          "internalType": "uint256",
          "name": "maxStake",
          "type": "uint256"
        }
      ],
      "name": "PlanCreated",
      "type": "event"
    },
    {
      "anonymous": false,
      "inputs": [
        {
          "indexed": false,
          "internalType": "uint256",
          "name": "planId",
          "type": "uint256"
        }
      ],
      "name": "PlanDeactivated",
      "type": "event"
    },
    {
      "anonymous": false,
      "inputs": [
        {
          "indexed": true,
          "internalType": "address",
          "name": "user",
          "type": "address"
        },
        {
          "indexed": false,
          "internalType": "uint256",
          "name": "planId",
          "type": "uint256"
        },
        {
          "indexed": false,
          "internalType": "uint256",
          "name": "amount",
          "type": "uint256"
        }
      ],
      "name": "Staked",
      "type": "event"
    },
    {
      "anonymous": false,
      "inputs": [
        {
          "indexed": true,
          "internalType": "address",
          "name": "user",
          "type": "address"
        },
        {
          "indexed": false,
          "internalType": "uint256",
          "name": "planId",
          "type": "uint256"
        },
        {
          "indexed": false,
          "internalType": "uint256",
          "name": "amount",
          "type": "uint256"
        }
      ],
      "name": "Unstaked",
      "type": "event"
    },
    {
      "inputs": [
        {
          "internalType": "uint256",
          "name": "planId",
          "type": "uint256"
        },
        {
          "internalType": "uint256",
          "name": "duration",
          "type": "uint256"
        },
        {
          "internalType": "uint256",
          "name": "rewardRate",
          "type": "uint256"
        },
        {
          "internalType": "uint256",
          "name": "minStake",
          "type": "uint256"
        },
        {
          "internalType": "uint256",
          "name": "maxStake",
          "type": "uint256"
        }
      ],
      "name": "createPlan",
      "outputs": [],
      "stateMutability": "nonpayable",
      "type": "function"
    },
    {
      "inputs": [
        {
          "internalType": "uint256",
          "name": "planId",
          "type": "uint256"
        }
      ],
      "name": "deactivatePlan",
      "outputs": [],
      "stateMutability": "nonpayable",
      "type": "function"
    },
    {
      "inputs": [
        {
          "internalType": "address",
          "name": "user",
          "type": "address"
        },
        {
          "internalType": "uint256",
          "name": "planId",
          "type": "uint256"
        }
      ],
      "name": "getCalculateReward",
      "outputs": [
        {
          "internalType": "uint256",
          "name": "",
          "type": "uint256"
        }
      ],
      "stateMutability": "view",
      "type": "function"
    },
    {
      "inputs": [
        {
          "internalType": "address",
          "name": "user",
          "type": "address"
        },
        {
          "internalType": "uint256",
          "name": "planId",
          "type": "uint256"
        }
      ],
      "name": "getCurrentReward",
      "outputs": [
        {
          "internalType": "uint256",
          "name": "",
          "type": "uint256"
        }
      ],
      "stateMutability": "view",
      "type": "function"
    },
    {
      "inputs": [
        {
          "internalType": "address",
          "name": "user",
          "type": "address"
        },
        {
          "internalType": "uint256",
          "name": "planId",
          "type": "uint256"
        }
      ],
      "name": "getRemainingDuration",
      "outputs": [
        {
          "internalType": "uint256",
          "name": "",
          "type": "uint256"
        }
      ],
      "stateMutability": "view",
      "type": "function"
    },
    {
      "inputs": [
        {
          "internalType": "address",
          "name": "user",
          "type": "address"
        },
        {
          "internalType": "uint256",
          "name": "planId",
          "type": "uint256"
        }
      ],
      "name": "getRewarPerDay",
      "outputs": [
        {
          "internalType": "uint256",
          "name": "",
          "type": "uint256"
        }
      ],
      "stateMutability": "view",
      "type": "function"
    },
    {
      "inputs": [],
      "name": "getTotalAllUserStaked",
      "outputs": [
        {
          "internalType": "uint256",
          "name": "",
          "type": "uint256"
        }
      ],
      "stateMutability": "view",
      "type": "function"
    },
    {
      "inputs": [
        {
          "internalType": "uint256",
          "name": "planId",
          "type": "uint256"
        }
      ],
      "name": "getTotalStakedAmount",
      "outputs": [
        {
          "internalType": "uint256",
          "name": "",
          "type": "uint256"
        }
      ],
      "stateMutability": "view",
      "type": "function"
    },
    {
      "inputs": [
        {
          "internalType": "address",
          "name": "user",
          "type": "address"
        }
      ],
      "name": "getUserStakedPlans",
      "outputs": [
        {
          "internalType": "uint256[]",
          "name": "",
          "type": "uint256[]"
        }
      ],
      "stateMutability": "view",
      "type": "function"
    },
    {
      "inputs": [
        {
          "internalType": "address",
          "name": "user",
          "type": "address"
        }
      ],
      "name": "getUserTotalStakedBalance",
      "outputs": [
        {
          "internalType": "uint256",
          "name": "",
          "type": "uint256"
        }
      ],
      "stateMutability": "view",
      "type": "function"
    },
    {
      "inputs": [],
      "name": "owner",
      "outputs": [
        {
          "internalType": "address",
          "name": "",
          "type": "address"
        }
      ],
      "stateMutability": "view",
      "type": "function"
    },
    {
      "inputs": [
        {
          "internalType": "uint256",
          "name": "planId",
          "type": "uint256"
        },
        {
          "internalType": "uint256",
          "name": "amount",
          "type": "uint256"
        }
      ],
      "name": "stake",
      "outputs": [],
      "stateMutability": "nonpayable",
      "type": "function"
    },
    {
      "inputs": [],
      "name": "token",
      "outputs": [
        {
          "internalType": "contract IERC20",
          "name": "",
          "type": "address"
        }
      ],
      "stateMutability": "view",
      "type": "function"
    },
    {
      "inputs": [
        {
          "internalType": "address",
          "name": "newOwner",
          "type": "address"
        }
      ],
      "name": "transferOwnership",
      "outputs": [],
      "stateMutability": "nonpayable",
      "type": "function"
    },
    {
      "inputs": [
        {
          "internalType": "uint256",
          "name": "planId",
          "type": "uint256"
        }
      ],
      "name": "unstake",
      "outputs": [],
      "stateMutability": "nonpayable",
      "type": "function"
    }
  ],
  "bytecode": "0x608060405234801561001057600080fd5b5060405161134938038061134983398101604081905261002f91610062565b60008054336001600160a01b031991821617909155600180549091166001600160a01b0392909216919091179055610092565b60006020828403121561007457600080fd5b81516001600160a01b038116811461008b57600080fd5b9392505050565b6112a8806100a16000396000f3fe608060405234801561001057600080fd5b50600436106100f45760003560e01c80637b0472f011610097578063cfa43f8111610066578063cfa43f81146101f9578063ddef02b81461020c578063f2fde38b1461021f578063fc0c546a1461023257600080fd5b80637b0472f0146101955780637f5747a1146101a85780638bc5ab70146101bb5780638da5cb5b146101ce57600080fd5b80630b7c28f3116100d35780630b7c28f3146101525780632e17de781461015a5780634970a50d1461016f5780636174bc631461018257600080fd5b80629bb3a7146100f95780630792ea251461011f57806309ae8c2214610132575b600080fd5b61010c610107366004611036565b610245565b6040519081526020015b60405180910390f35b61010c61012d366004611036565b61025a565b610145610140366004611060565b610266565b604051610116919061107b565b61010c61035b565b61016d6101683660046110bf565b6103e1565b005b61016d61017d3660046110d8565b6105f3565b61016d6101903660046110bf565b610793565b61016d6101a3366004611113565b610875565b61010c6101b6366004611036565b610b10565b61010c6101c9366004611060565b610b96565b6000546101e1906001600160a01b031681565b6040516001600160a01b039091168152602001610116565b61010c610207366004611036565b610c03565b61010c61021a3660046110bf565b610c0f565b61016d61022d366004611060565b610cae565b6001546101e1906001600160a01b031681565b60006102518383610d89565b90505b92915050565b60006102518383610e3b565b60025460609060009067ffffffffffffffff81111561028757610287611135565b6040519080825280602002602001820160405280156102b0578160200160208202803683370190505b50905060005b600254811015610354576001600160a01b038416600090815260056020526040812060028054839190859081106102ef576102ef61114b565b9060005260206000200154815260200190815260200160002054111561034c57600281815481106103225761032261114b565b906000526020600020015482828151811061033f5761033f61114b565b6020026020010181815250505b6001016102b6565b5092915050565b600080805b6003548110156103db5760005b6002548110156103d257600560006003848154811061038e5761038e61114b565b60009182526020808320909101546001600160a01b0316835282810193909352604091820181208482529092529020546103c89084611177565b925060010161036d565b50600101610360565b50919050565b60008181526004602081905260409091200154610100900460ff166104215760405162461bcd60e51b81526004016104189061118a565b60405180910390fd5b3360009081526006602090815260408083208484528252808320546004909252822054909161045382620151806111b3565b61045d9084611177565b9050804210156104a55760405162461bcd60e51b8152602060048201526013602482015272111d5c985d1a5bdb881b9bdd081c185cdcd959606a1b6044820152606401610418565b336000908152600560209081526040808320878452909152902054806105055760405162461bcd60e51b81526020600482015260156024820152744e6f2062616c616e636520746f20756e7374616b6560581b6044820152606401610418565b60006105113387610e3b565b9050600061051f8284611177565b60015460405163a9059cbb60e01b8152336004820152602481018390529192506001600160a01b03169063a9059cbb906044016020604051808303816000875af1158015610571573d6000803e3d6000fd5b505050506040513d601f19601f8201168201806040525081019061059591906111ca565b503360008181526005602090815260408083208b845282528083209290925581518a81529081018690527f7fc4727e062e336010f2c282598ef5f14facb3de68cf8195c2f23e1454b2b74e910160405180910390a250505050505050565b6000546001600160a01b0316331461061d5760405162461bcd60e51b8152600401610418906111f3565b6000858152600460208190526040909120015460ff16156106795760405162461bcd60e51b8152602060048201526016602482015275506c616e20494420616c72656164792065786973747360501b6044820152606401610418565b6040805160c08101825285815260208082018681528284018681526060840186815260016080860181815260a0870182815260008e81526004978890528981209851895595518884015593516002808901919091559251600388015551959094018054925115156101000261ff00199615159690961661ffff199093169290921794909417905582549182018355919091527f405787fa12a823e0f2b7631cc41b3ba8828b3321ca811111fa75cd3aa3bb5ace01869055517f98386613dadc6c1f98cae9f49f0e62ec70d7172408602aa0b9670e9b96a2cd95906107849087908790879087908790948552602085019390935260408401919091526060830152608082015260a00190565b60405180910390a15050505050565b6000546001600160a01b031633146107bd5760405162461bcd60e51b8152600401610418906111f3565b6000818152600460208190526040909120015460ff1661081f5760405162461bcd60e51b815260206004820152601b60248201527f506c616e20494420697320616c726561647920696e61637469766500000000006044820152606401610418565b60008181526004602081905260409182902001805460ff19169055517f9d249762cccbda1c5e13d7d903a7fd4d9787cebc8b34172efbf22b612e90c14c9061086a9083815260200190565b60405180910390a150565b6000828152600460208190526040909120015460ff166108a75760405162461bcd60e51b81526004016104189061118a565b600081116108f75760405162461bcd60e51b815260206004820181905260248201527f416d6f756e74206d7573742062652067726561746572207468616e207a65726f6044820152606401610418565b6000828152600460205260409020600201548110156109585760405162461bcd60e51b815260206004820152601d60248201527f416d6f756e742069732062656c6f77206d696e696d756d207374616b650000006044820152606401610418565b6000828152600460205260409020600301548111156109b95760405162461bcd60e51b815260206004820152601c60248201527f416d6f756e742065786365656473206d6178696d756d207374616b65000000006044820152606401610418565b6001546040516323b872dd60e01b8152336004820152306024820152604481018390526001600160a01b03909116906323b872dd906064016020604051808303816000875af1158015610a10573d6000803e3d6000fd5b505050506040513d601f19601f82011682018060405250810190610a3491906111ca565b5033600090815260056020908152604080832085845290915281208054839290610a5f908490611177565b90915550503360008181526006602090815260408083208684529091529020429055610a8a90610ee9565b610ad157600380546001810182556000919091527fc2575a0e9e593c00f959f8c92f12db2869c3395a3b0502d05e2516446f71f85b0180546001600160a01b031916331790555b604080518381526020810183905233917f1449c6dd7851abc30abf37f57715f492010519147cc2652fbc38202c18a6ee90910160405180910390a25050565b600081815260046020819052604082200154610100900460ff16610b465760405162461bcd60e51b81526004016104189061118a565b60008281526004602052604081205490610b608585610d89565b90506000610b6e8686610f48565b90506000610b7c838561123d565b90506000610b8a83836111b3565b98975050505050505050565b600080805b600254811015610354576001600160a01b03841660009081526005602052604081206002805491929184908110610bd457610bd461114b565b906000526020600020015481526020019081526020016000205482610bf99190611177565b9150600101610b9b565b60006102518383610f48565b600081815260046020819052604082200154610100900460ff16610c455760405162461bcd60e51b81526004016104189061118a565b6000805b600354811015610354576005600060038381548110610c6a57610c6a61114b565b60009182526020808320909101546001600160a01b031683528281019390935260409182018120878252909252902054610ca49083611177565b9150600101610c49565b6000546001600160a01b03163314610cd85760405162461bcd60e51b8152600401610418906111f3565b6001600160a01b038116610d2e5760405162461bcd60e51b815260206004820152601960248201527f496e76616c6964206e6577206f776e65722061646472657373000000000000006044820152606401610418565b600080546040516001600160a01b03808516939216917f8be0079c531659141344cd1fd0a4f28419497f9722a3daafe3b4186f6b6457e091a3600080546001600160a01b0319166001600160a01b0392909216919091179055565b600081815260046020819052604082200154610100900460ff16610dbf5760405162461bcd60e51b81526004016104189061118a565b6001600160a01b038316600090815260066020908152604080832085845282528083205460049092528220549091610dfa82620151806111b3565b610e049084611177565b9050804210610e195760009350505050610254565b62015180610e27428361123d565b610e319190611250565b9350505050610254565b600081815260046020819052604082200154610100900460ff16610e715760405162461bcd60e51b81526004016104189061118a565b6001600160a01b038316600090815260056020908152604080832085845282528083205460049092528220600101549091606482610eb7670de0b6b3a764000086611250565b610ec191906111b3565b610ecb9190611250565b9050610edf81670de0b6b3a76400006111b3565b9695505050505050565b6000805b600354811015610f3f57826001600160a01b031660038281548110610f1457610f1461114b565b6000918252602090912001546001600160a01b031603610f375750600192915050565b600101610eed565b50600092915050565b600081815260046020819052604082200154610100900460ff16610f7e5760405162461bcd60e51b81526004016104189061118a565b6001600160a01b038316600090815260056020908152604080832085845282528083205460049092528220600101549091610fb98686610d89565b905060008111610fcf5760009350505050610254565b6000610fdc606484611250565b610fee670de0b6b3a764000086611250565b610ff891906111b3565b905060006110068383611250565b9050610b8a81670de0b6b3a76400006111b3565b80356001600160a01b038116811461103157600080fd5b919050565b6000806040838503121561104957600080fd5b6110528361101a565b946020939093013593505050565b60006020828403121561107257600080fd5b6102518261101a565b6020808252825182820181905260009190848201906040850190845b818110156110b357835183529284019291840191600101611097565b50909695505050505050565b6000602082840312156110d157600080fd5b5035919050565b600080600080600060a086880312156110f057600080fd5b505083359560208501359550604085013594606081013594506080013592509050565b6000806040838503121561112657600080fd5b50508035926020909101359150565b634e487b7160e01b600052604160045260246000fd5b634e487b7160e01b600052603260045260246000fd5b634e487b7160e01b600052601160045260246000fd5b8082018082111561025457610254611161565b6020808252600f908201526e125b9d985b1a59081c1b185b881251608a1b604082015260600190565b808202811582820484141761025457610254611161565b6000602082840312156111dc57600080fd5b815180151581146111ec57600080fd5b9392505050565b6020808252602a908201527f4f6e6c7920636f6e7472616374206f776e65722063616e2063616c6c207468696040820152693990333ab731ba34b7b760b11b606082015260800190565b8181038181111561025457610254611161565b60008261126d57634e487b7160e01b600052601260045260246000fd5b50049056fea2646970667358221220c97b0cdd3eb25db80d65f067b9fdb2cc07744581e082071278a6fa16e5a890c664736f6c63430008180033",
  "linkReferences": {},
  "deployedLinkReferences": {}
}