{
  "contracts/StakeV2.sol": {
    "StakeV2Contract": {
      "abi": [
        {
          "inputs": [
            {
              "internalType": "address",
              "name": "_tokenAddress",
              "type": "address"
            }
          ],
          "stateMutability": "nonpayable",
          "type": "constructor"
        },
        {
          "anonymous": false,
          "inputs": [
            {
              "indexed": true,
              "internalType": "address",
              "name": "user",
              "type": "address"
            },
            {
              "indexed": false,
              "internalType": "uint256",
              "name": "amount",
              "type": "uint256"
            },
            {
              "indexed": false,
              "internalType": "uint256",
              "name": "duration",
              "type": "uint256"
            },
            {
              "indexed": false,
              "internalType": "uint256",
              "name": "created",
              "type": "uint256"
            },
            {
              "indexed": false,
              "internalType": "uint256",
              "name": "apr",
              "type": "uint256"
            }
          ],
          "name": "Staked",
          "type": "event"
        },
        {
          "anonymous": false,
          "inputs": [
            {
              "indexed": true,
              "internalType": "address",
              "name": "user",
              "type": "address"
            },
            {
              "indexed": false,
              "internalType": "uint256",
              "name": "amount",
              "type": "uint256"
            },
            {
              "indexed": false,
              "internalType": "uint256",
              "name": "interest",
              "type": "uint256"
            }
          ],
          "name": "Unstaked",
          "type": "event"
        },
        {
          "anonymous": false,
          "inputs": [
            {
              "indexed": true,
              "internalType": "address",
              "name": "user",
              "type": "address"
            }
          ],
          "name": "UpdateStakeAPR",
          "type": "event"
        },
        {
          "anonymous": false,
          "inputs": [
            {
              "indexed": true,
              "internalType": "address",
              "name": "user",
              "type": "address"
            }
          ],
          "name": "UpdateStakeMonth",
          "type": "event"
        },
        {
          "anonymous": false,
          "inputs": [
            {
              "indexed": true,
              "internalType": "address",
              "name": "user",
              "type": "address"
            }
          ],
          "name": "UpdateStakeRangeAmount",
          "type": "event"
        },
        {
          "inputs": [
            {
              "internalType": "uint256",
              "name": "stakeIndex",
              "type": "uint256"
            }
          ],
          "name": "calculateInterest",
          "outputs": [
            {
              "internalType": "uint256",
              "name": "",
              "type": "uint256"
            }
          ],
          "stateMutability": "view",
          "type": "function"
        },
        {
          "inputs": [
            {
              "internalType": "uint256",
              "name": "stakeAmount",
              "type": "uint256"
            },
            {
              "internalType": "uint256",
              "name": "stakeMonth",
              "type": "uint256"
            }
          ],
          "name": "getApr",
          "outputs": [
            {
              "internalType": "uint256",
              "name": "",
              "type": "uint256"
            }
          ],
          "stateMutability": "view",
          "type": "function"
        },
        {
          "inputs": [
            {
              "internalType": "uint256",
              "name": "amount",
              "type": "uint256"
            }
          ],
          "name": "getIndex",
          "outputs": [
            {
              "internalType": "int256",
              "name": "",
              "type": "int256"
            }
          ],
          "stateMutability": "view",
          "type": "function"
        },
        {
          "inputs": [],
          "name": "owner",
          "outputs": [
            {
              "internalType": "address",
              "name": "",
              "type": "address"
            }
          ],
          "stateMutability": "view",
          "type": "function"
        },
        {
          "inputs": [
            {
              "internalType": "uint256",
              "name": "amount",
              "type": "uint256"
            },
            {
              "internalType": "uint256",
              "name": "stakeMonth",
              "type": "uint256"
            }
          ],
          "name": "stake",
          "outputs": [],
          "stateMutability": "nonpayable",
          "type": "function"
        },
        {
          "inputs": [],
          "name": "token",
          "outputs": [
            {
              "internalType": "contract IERC20",
              "name": "",
              "type": "address"
            }
          ],
          "stateMutability": "view",
          "type": "function"
        },
        {
          "inputs": [
            {
              "internalType": "address",
              "name": "newOwner",
              "type": "address"
            }
          ],
          "name": "transferOwnership",
          "outputs": [],
          "stateMutability": "nonpayable",
          "type": "function"
        },
        {
          "inputs": [
            {
              "internalType": "uint256",
              "name": "stakeIndex",
              "type": "uint256"
            }
          ],
          "name": "unstake",
          "outputs": [],
          "stateMutability": "nonpayable",
          "type": "function"
        },
        {
          "inputs": [
            {
              "internalType": "uint256[6][6]",
              "name": "newAPR",
              "type": "uint256[6][6]"
            }
          ],
          "name": "updateAPR",
          "outputs": [],
          "stateMutability": "nonpayable",
          "type": "function"
        },
        {
          "inputs": [
            {
              "internalType": "uint256[6]",
              "name": "newMinAmounts",
              "type": "uint256[6]"
            },
            {
              "internalType": "uint256[6]",
              "name": "newMaxAmounts",
              "type": "uint256[6]"
            }
          ],
          "name": "updateMinMaxAmounts",
          "outputs": [],
          "stateMutability": "nonpayable",
          "type": "function"
        },
        {
          "inputs": [
            {
              "internalType": "uint256[6]",
              "name": "newStakeMonths",
              "type": "uint256[6]"
            }
          ],
          "name": "updateStakeMonths",
          "outputs": [],
          "stateMutability": "nonpayable",
          "type": "function"
        }
      ],
      "evm": {
        "bytecode": {
          "linkReferences": {},
          "object": "6608e1bc9bf04000610140818152661aa535d3d0c0006101605266354a6ba7a18000610180819052666a94d74f4300006101a0819052669fdf42f6e480006101c081905266d529ae9e8600006101e08190526080948552610200868152610220859052610240939093526102605267013fbe85edc900006102808190526701aa535d3d0c00006102a081905260a0939093526102c08681526102e0859052610300839052610320919091526701df9dc8e4ad80006103405267027f7d0bdb92000061036081905260c0919091526103808681526103a08590526103c08390526103e084905261040091909152670354a6ba7a1800006104205260e0526104408581526104608490526104808290526104a083905267031f5c4ed27680006104c0819052670429d069189e00006104e052610100919091526105c0604052610500958652610520939093526105405261056052610580526704fefa17b72400006105a052610120919091526200017990600090600662000310565b506040518060c0016040528069043c33c1937564800000815260200169054b40b1f852bda000008152602001690a968163f0a57b4000008152602001691a784379d99db420000081526020016934f086f3b33b6840000081526020016969e10de76676d08000008152506024906006620001f592919062000362565b506040518060c0016040528069054b40b1f852bda000008152602001690a968163f0a57b4000008152602001691a784379d99db420000081526020016934f086f3b33b6840000081526020016969e10de76676d08000008152602001600019815250602a9060066200026992919062000362565b506040805160c08101825260018152600360208201526006918101829052600c606082015260126080820152601860a0820152620002ab9160309190620003a1565b50348015620002b957600080fd5b506040516200126d3803806200126d833981016040819052620002dc9162000423565b60378054336001600160a01b031991821617909155603680549091166001600160a01b039290921691909117905562000455565b60248301918390821562000350579160200282015b82811115620003505782516200033f908390600662000362565b509160200191906006019062000325565b506200035e929150620003d7565b5090565b826006810192821562000393579160200282015b828111156200039357825182559160200191906001019062000376565b506200035e929150620003f8565b826006810192821562000393579160200282015b8281111562000393578251829060ff16905591602001919060010190620003b5565b808211156200035e576000620003ee82826200040f565b50600601620003d7565b5b808211156200035e5760008155600101620003f9565b5062000420906006810190620003f8565b50565b6000602082840312156200043657600080fd5b81516001600160a01b03811681146200044e57600080fd5b9392505050565b610e0880620004656000396000f3fe608060405234801561001057600080fd5b50600436106100a95760003560e01c80638e7cb6e1116100715780638e7cb6e11461012c5780638f25824d1461014d578063a57475e014610160578063c348b02814610173578063f2fde38b14610186578063fc0c546a1461019957600080fd5b80630da2728c146100ae5780632e17de78146100c35780635651cc03146100d65780637b0472f0146100e95780638da5cb5b146100fc575b600080fd5b6100c16100bc366004610bd7565b6101ac565b005b6100c16100d1366004610c0d565b61022a565b6100c16100e4366004610c26565b6104a7565b6100c16100f7366004610c93565b61050d565b60375461010f906001600160a01b031681565b6040516001600160a01b0390911681526020015b60405180910390f35b61013f61013a366004610c0d565b6107ac565b604051908152602001610123565b6100c161015b366004610cb5565b61080d565b61013f61016e366004610c0d565b610873565b61013f610181366004610c93565b6108d8565b6100c1610194366004610cd8565b6109e5565b60365461010f906001600160a01b031681565b6037546001600160a01b031633146101df5760405162461bcd60e51b81526004016101d690610d01565b60405180910390fd5b6101ec6024836006610a87565b506101fa602a826006610a87565b5060405133907f3cc6c2fea9fda6f13b398f1cee3a08f13e567ac2decd018dad7a3e9e9b6fde8d90600090a25050565b33600090815260386020526040902054811061027e5760405162461bcd60e51b8152602060048201526013602482015272092dcecc2d8d2c840e6e8c2d6ca40d2dcc8caf606b1b60448201526064016101d6565b33600090815260386020526040812080548390811061029f5761029f610d38565b60009182526020909120600590910201600481015490915060ff16156103075760405162461bcd60e51b815260206004820152601760248201527f5374616b6520616c72656164792077697468647261776e00000000000000000060448201526064016101d6565b8060020154816001015461031b9190610d64565b42101561036a5760405162461bcd60e51b815260206004820152601e60248201527f5374616b6520706572696f64206e6f742079657420636f6d706c65746564000060448201526064016101d6565b600061037583610873565b905060008183600001546103899190610d64565b6004848101805460ff191660011790556036546037546040516323b872dd60e01b81526001600160a01b03918216938101939093523360248401526044830184905292935091909116906323b872dd906064016020604051808303816000875af11580156103fb573d6000803e3d6000fd5b505050506040513d601f19601f8201168201806040525081019061041f9190610d77565b6104635760405162461bcd60e51b8152602060048201526015602482015274151bdad95b881d1c985b9cd9995c8819985a5b1959605a1b60448201526064016101d6565b8254604080519182526020820184905233917f7fc4727e062e336010f2c282598ef5f14facb3de68cf8195c2f23e1454b2b74e91015b60405180910390a250505050565b6037546001600160a01b031633146104d15760405162461bcd60e51b81526004016101d690610d01565b6104de6000826006610ac5565b5060405133907ffa09aed9dc72243398d7e1d30a4758f73431601c09d8558889a859ce32b018cd90600090a250565b6000821161055d5760405162461bcd60e51b815260206004820152601d60248201527f416d6f756e74206d7573742062652067726561746572207468616e203000000060448201526064016101d6565b6000610568836107ac565b905060008112156105bb5760405162461bcd60e51b815260206004820152601f60248201527f416d6f756e7420646f6573206e6f742066697420616e7920627261636b65740060448201526064016101d6565b60006105c784846108d8565b9050600081116106075760405162461bcd60e51b815260206004820152600b60248201526a24b73b30b634b21020a82960a91b60448201526064016101d6565b6036546037546040516323b872dd60e01b81523360048201526001600160a01b039182166024820152604481018790529116906323b872dd906064016020604051808303816000875af1158015610662573d6000803e3d6000fd5b505050506040513d601f19601f820116820180604052508101906106869190610d77565b6106ca5760405162461bcd60e51b8152602060048201526015602482015274151bdad95b881d1c985b9cd9995c8819985a5b1959605a1b60448201526064016101d6565b33600090815260386020908152604091829020825160a08101845287815242928101929092529181016107008662278d00610d99565b8152602080820185905260006040928301819052845460018082018755958252908290208451600590920201908155838201519481019490945582820151600285015560608084015160038601556080938401516004909501805460ff1916951515959095179094558151888152908101879052429181019190915291820183905233917f9cfd25589d1eb8ad71e342a86a8524e83522e3936c0803048c08f6d9ad974f409101610499565b6000805b600681101561080357602481600681106107cc576107cc610d38565b015483101580156107f05750602a81600681106107eb576107eb610d38565b015483105b156107fb5792915050565b6001016107b0565b5060001992915050565b6037546001600160a01b031633146108375760405162461bcd60e51b81526004016101d690610d01565b6108446030826006610a87565b5060405133907fffc95d0f0b575640b8b14170aa98a6b8fa79357e756befded33300c4cf2bc9f090600090a250565b33600090815260386020526040812080548291908490811061089757610897610d38565b906000526020600020906005020190506000670de0b6b3a7640000826003015483600001546108c69190610d99565b6108d09190610db0565b949350505050565b6000806108e4846107ac565b9050600081121561092e5760405162461bcd60e51b8152602060048201526014602482015273125b9d985b1a59081cdd185ad948185b5bdd5b9d60621b60448201526064016101d6565b600080805b600681101561096b57856030826006811061095057610950610d38565b015403610963578092506001915061096b565b600101610933565b50806109af5760405162461bcd60e51b8152602060048201526013602482015272092dcecc2d8d2c840e6e8c2d6ca40dadedce8d606b1b60448201526064016101d6565b600083600681106109c2576109c2610d38565b6006020182600681106109d7576109d7610d38565b015493505050505b92915050565b6037546001600160a01b03163314610a0f5760405162461bcd60e51b81526004016101d690610d01565b6001600160a01b038116610a655760405162461bcd60e51b815260206004820152601d60248201527f4e6577206f776e657220697320746865207a65726f206164647265737300000060448201526064016101d6565b603780546001600160a01b0319166001600160a01b0392909216919091179055565b8260068101928215610ab5579160200282015b82811115610ab5578251825591602001919060010190610a9a565b50610ac1929150610b0c565b5090565b602483019183908215610b00579160200282015b82811115610b00578251610af09083906006610a87565b5091602001919060060190610ad9565b50610ac1929150610b21565b5b80821115610ac15760008155600101610b0d565b80821115610ac1576000610b358282610b3e565b50600601610b21565b50610b4d906006810190610b0c565b50565b60405160c0810167ffffffffffffffff81118282101715610b8157634e487b7160e01b600052604160045260246000fd5b60405290565b600082601f830112610b9857600080fd5b610ba0610b50565b8060c0840185811115610bb257600080fd5b845b81811015610bcc578035845260209384019301610bb4565b509095945050505050565b6000806101808385031215610beb57600080fd5b610bf58484610b87565b9150610c048460c08501610b87565b90509250929050565b600060208284031215610c1f57600080fd5b5035919050565b6000610480808385031215610c3a57600080fd5b83601f840112610c4957600080fd5b60c0610c53610b50565b918401918086841115610c6557600080fd5b855b84811015610c8857610c798882610b87565b83526020909201918301610c67565b509695505050505050565b60008060408385031215610ca657600080fd5b50508035926020909101359150565b600060c08284031215610cc757600080fd5b610cd18383610b87565b9392505050565b600060208284031215610cea57600080fd5b81356001600160a01b0381168114610cd157600080fd5b60208082526017908201527f43616c6c6572206973206e6f7420746865206f776e6572000000000000000000604082015260600190565b634e487b7160e01b600052603260045260246000fd5b634e487b7160e01b600052601160045260246000fd5b808201808211156109df576109df610d4e565b600060208284031215610d8957600080fd5b81518015158114610cd157600080fd5b80820281158282048414176109df576109df610d4e565b600082610dcd57634e487b7160e01b600052601260045260246000fd5b50049056fea2646970667358221220dd06cf23a3745c4f2cd9231174a8f7f328e677c614e467392b21bcce0bbed2f164736f6c63430008180033",
          "opcodes": "PUSH7 0x8E1BC9BF04000 PUSH2 0x140 DUP2 DUP2 MSTORE PUSH7 0x1AA535D3D0C000 PUSH2 0x160 MSTORE PUSH7 0x354A6BA7A18000 PUSH2 0x180 DUP2 SWAP1 MSTORE PUSH7 0x6A94D74F430000 PUSH2 0x1A0 DUP2 SWAP1 MSTORE PUSH7 0x9FDF42F6E48000 PUSH2 0x1C0 DUP2 SWAP1 MSTORE PUSH7 0xD529AE9E860000 PUSH2 0x1E0 DUP2 SWAP1 MSTORE PUSH1 0x80 SWAP5 DUP6 MSTORE PUSH2 0x200 DUP7 DUP2 MSTORE PUSH2 0x220 DUP6 SWAP1 MSTORE PUSH2 0x240 SWAP4 SWAP1 SWAP4 MSTORE PUSH2 0x260 MSTORE PUSH8 0x13FBE85EDC90000 PUSH2 0x280 DUP2 SWAP1 MSTORE PUSH8 0x1AA535D3D0C0000 PUSH2 0x2A0 DUP2 SWAP1 MSTORE PUSH1 0xA0 SWAP4 SWAP1 SWAP4 MSTORE PUSH2 0x2C0 DUP7 DUP2 MSTORE PUSH2 0x2E0 DUP6 SWAP1 MSTORE PUSH2 0x300 DUP4 SWAP1 MSTORE PUSH2 0x320 SWAP2 SWAP1 SWAP2 MSTORE PUSH8 0x1DF9DC8E4AD8000 PUSH2 0x340 MSTORE PUSH8 0x27F7D0BDB920000 PUSH2 0x360 DUP2 SWAP1 MSTORE PUSH1 0xC0 SWAP2 SWAP1 SWAP2 MSTORE PUSH2 0x380 DUP7 DUP2 MSTORE PUSH2 0x3A0 DUP6 SWAP1 MSTORE PUSH2 0x3C0 DUP4 SWAP1 MSTORE PUSH2 0x3E0 DUP5 SWAP1 MSTORE PUSH2 0x400 SWAP2 SWAP1 SWAP2 MSTORE PUSH8 0x354A6BA7A180000 PUSH2 0x420 MSTORE PUSH1 0xE0 MSTORE PUSH2 0x440 DUP6 DUP2 MSTORE PUSH2 0x460 DUP5 SWAP1 MSTORE PUSH2 0x480 DUP3 SWAP1 MSTORE PUSH2 0x4A0 DUP4 SWAP1 MSTORE PUSH8 0x31F5C4ED2768000 PUSH2 0x4C0 DUP2 SWAP1 MSTORE PUSH8 0x429D069189E0000 PUSH2 0x4E0 MSTORE PUSH2 0x100 SWAP2 SWAP1 SWAP2 MSTORE PUSH2 0x5C0 PUSH1 0x40 MSTORE PUSH2 0x500 SWAP6 DUP7 MSTORE PUSH2 0x520 SWAP4 SWAP1 SWAP4 MSTORE PUSH2 0x540 MSTORE PUSH2 0x560 MSTORE PUSH2 0x580 MSTORE PUSH8 0x4FEFA17B7240000 PUSH2 0x5A0 MSTORE PUSH2 0x120 SWAP2 SWAP1 SWAP2 MSTORE PUSH3 0x179 SWAP1 PUSH1 0x0 SWAP1 PUSH1 0x6 PUSH3 0x310 JUMP JUMPDEST POP PUSH1 0x40 MLOAD DUP1 PUSH1 0xC0 ADD PUSH1 0x40 MSTORE DUP1 PUSH10 0x43C33C1937564800000 DUP2 MSTORE PUSH1 0x20 ADD PUSH10 0x54B40B1F852BDA00000 DUP2 MSTORE PUSH1 0x20 ADD PUSH10 0xA968163F0A57B400000 DUP2 MSTORE PUSH1 0x20 ADD PUSH10 0x1A784379D99DB4200000 DUP2 MSTORE PUSH1 0x20 ADD PUSH10 0x34F086F3B33B68400000 DUP2 MSTORE PUSH1 0x20 ADD PUSH10 0x69E10DE76676D0800000 DUP2 MSTORE POP PUSH1 0x24 SWAP1 PUSH1 0x6 PUSH3 0x1F5 SWAP3 SWAP2 SWAP1 PUSH3 0x362 JUMP JUMPDEST POP PUSH1 0x40 MLOAD DUP1 PUSH1 0xC0 ADD PUSH1 0x40 MSTORE DUP1 PUSH10 0x54B40B1F852BDA00000 DUP2 MSTORE PUSH1 0x20 ADD PUSH10 0xA968163F0A57B400000 DUP2 MSTORE PUSH1 0x20 ADD PUSH10 0x1A784379D99DB4200000 DUP2 MSTORE PUSH1 0x20 ADD PUSH10 0x34F086F3B33B68400000 DUP2 MSTORE PUSH1 0x20 ADD PUSH10 0x69E10DE76676D0800000 DUP2 MSTORE PUSH1 0x20 ADD PUSH1 0x0 NOT DUP2 MSTORE POP PUSH1 0x2A SWAP1 PUSH1 0x6 PUSH3 0x269 SWAP3 SWAP2 SWAP1 PUSH3 0x362 JUMP JUMPDEST POP PUSH1 0x40 DUP1 MLOAD PUSH1 0xC0 DUP2 ADD DUP3 MSTORE PUSH1 0x1 DUP2 MSTORE PUSH1 0x3 PUSH1 0x20 DUP3 ADD MSTORE PUSH1 0x6 SWAP2 DUP2 ADD DUP3 SWAP1 MSTORE PUSH1 0xC PUSH1 0x60 DUP3 ADD MSTORE PUSH1 0x12 PUSH1 0x80 DUP3 ADD MSTORE PUSH1 0x18 PUSH1 0xA0 DUP3 ADD MSTORE PUSH3 0x2AB SWAP2 PUSH1 0x30 SWAP2 SWAP1 PUSH3 0x3A1 JUMP JUMPDEST POP CALLVALUE DUP1 ISZERO PUSH3 0x2B9 JUMPI PUSH1 0x0 DUP1 REVERT JUMPDEST POP PUSH1 0x40 MLOAD PUSH3 0x126D CODESIZE SUB DUP1 PUSH3 0x126D DUP4 CODECOPY DUP2 ADD PUSH1 0x40 DUP2 SWAP1 MSTORE PUSH3 0x2DC SWAP2 PUSH3 0x423 JUMP JUMPDEST PUSH1 0x37 DUP1 SLOAD CALLER PUSH1 0x1 PUSH1 0x1 PUSH1 0xA0 SHL SUB NOT SWAP2 DUP3 AND OR SWAP1 SWAP2 SSTORE PUSH1 0x36 DUP1 SLOAD SWAP1 SWAP2 AND PUSH1 0x1 PUSH1 0x1 PUSH1 0xA0 SHL SUB SWAP3 SWAP1 SWAP3 AND SWAP2 SWAP1 SWAP2 OR SWAP1 SSTORE PUSH3 0x455 JUMP JUMPDEST PUSH1 0x24 DUP4 ADD SWAP2 DUP4 SWAP1 DUP3 ISZERO PUSH3 0x350 JUMPI SWAP2 PUSH1 0x20 MUL DUP3 ADD JUMPDEST DUP3 DUP2 GT ISZERO PUSH3 0x350 JUMPI DUP3 MLOAD PUSH3 0x33F SWAP1 DUP4 SWAP1 PUSH1 0x6 PUSH3 0x362 JUMP JUMPDEST POP SWAP2 PUSH1 0x20 ADD SWAP2 SWAP1 PUSH1 0x6 ADD SWAP1 PUSH3 0x325 JUMP JUMPDEST POP PUSH3 0x35E SWAP3 SWAP2 POP PUSH3 0x3D7 JUMP JUMPDEST POP SWAP1 JUMP JUMPDEST DUP3 PUSH1 0x6 DUP2 ADD SWAP3 DUP3 ISZERO PUSH3 0x393 JUMPI SWAP2 PUSH1 0x20 MUL DUP3 ADD JUMPDEST DUP3 DUP2 GT ISZERO PUSH3 0x393 JUMPI DUP3 MLOAD DUP3 SSTORE SWAP2 PUSH1 0x20 ADD SWAP2 SWAP1 PUSH1 0x1 ADD SWAP1 PUSH3 0x376 JUMP JUMPDEST POP PUSH3 0x35E SWAP3 SWAP2 POP PUSH3 0x3F8 JUMP JUMPDEST DUP3 PUSH1 0x6 DUP2 ADD SWAP3 DUP3 ISZERO PUSH3 0x393 JUMPI SWAP2 PUSH1 0x20 MUL DUP3 ADD JUMPDEST DUP3 DUP2 GT ISZERO PUSH3 0x393 JUMPI DUP3 MLOAD DUP3 SWAP1 PUSH1 0xFF AND SWAP1 SSTORE SWAP2 PUSH1 0x20 ADD SWAP2 SWAP1 PUSH1 0x1 ADD SWAP1 PUSH3 0x3B5 JUMP JUMPDEST DUP1 DUP3 GT ISZERO PUSH3 0x35E JUMPI PUSH1 0x0 PUSH3 0x3EE DUP3 DUP3 PUSH3 0x40F JUMP JUMPDEST POP PUSH1 0x6 ADD PUSH3 0x3D7 JUMP JUMPDEST JUMPDEST DUP1 DUP3 GT ISZERO PUSH3 0x35E JUMPI PUSH1 0x0 DUP2 SSTORE PUSH1 0x1 ADD PUSH3 0x3F9 JUMP JUMPDEST POP PUSH3 0x420 SWAP1 PUSH1 0x6 DUP2 ADD SWAP1 PUSH3 0x3F8 JUMP JUMPDEST POP JUMP JUMPDEST PUSH1 0x0 PUSH1 0x20 DUP3 DUP5 SUB SLT ISZERO PUSH3 0x436 JUMPI PUSH1 0x0 DUP1 REVERT JUMPDEST DUP2 MLOAD PUSH1 0x1 PUSH1 0x1 PUSH1 0xA0 SHL SUB DUP2 AND DUP2 EQ PUSH3 0x44E JUMPI PUSH1 0x0 DUP1 REVERT JUMPDEST SWAP4 SWAP3 POP POP POP JUMP JUMPDEST PUSH2 0xE08 DUP1 PUSH3 0x465 PUSH1 0x0 CODECOPY PUSH1 0x0 RETURN INVALID PUSH1 0x80 PUSH1 0x40 MSTORE CALLVALUE DUP1 ISZERO PUSH2 0x10 JUMPI PUSH1 0x0 DUP1 REVERT JUMPDEST POP PUSH1 0x4 CALLDATASIZE LT PUSH2 0xA9 JUMPI PUSH1 0x0 CALLDATALOAD PUSH1 0xE0 SHR DUP1 PUSH4 0x8E7CB6E1 GT PUSH2 0x71 JUMPI DUP1 PUSH4 0x8E7CB6E1 EQ PUSH2 0x12C JUMPI DUP1 PUSH4 0x8F25824D EQ PUSH2 0x14D JUMPI DUP1 PUSH4 0xA57475E0 EQ PUSH2 0x160 JUMPI DUP1 PUSH4 0xC348B028 EQ PUSH2 0x173 JUMPI DUP1 PUSH4 0xF2FDE38B EQ PUSH2 0x186 JUMPI DUP1 PUSH4 0xFC0C546A EQ PUSH2 0x199 JUMPI PUSH1 0x0 DUP1 REVERT JUMPDEST DUP1 PUSH4 0xDA2728C EQ PUSH2 0xAE JUMPI DUP1 PUSH4 0x2E17DE78 EQ PUSH2 0xC3 JUMPI DUP1 PUSH4 0x5651CC03 EQ PUSH2 0xD6 JUMPI DUP1 PUSH4 0x7B0472F0 EQ PUSH2 0xE9 JUMPI DUP1 PUSH4 0x8DA5CB5B EQ PUSH2 0xFC JUMPI JUMPDEST PUSH1 0x0 DUP1 REVERT JUMPDEST PUSH2 0xC1 PUSH2 0xBC CALLDATASIZE PUSH1 0x4 PUSH2 0xBD7 JUMP JUMPDEST PUSH2 0x1AC JUMP JUMPDEST STOP JUMPDEST PUSH2 0xC1 PUSH2 0xD1 CALLDATASIZE PUSH1 0x4 PUSH2 0xC0D JUMP JUMPDEST PUSH2 0x22A JUMP JUMPDEST PUSH2 0xC1 PUSH2 0xE4 CALLDATASIZE PUSH1 0x4 PUSH2 0xC26 JUMP JUMPDEST PUSH2 0x4A7 JUMP JUMPDEST PUSH2 0xC1 PUSH2 0xF7 CALLDATASIZE PUSH1 0x4 PUSH2 0xC93 JUMP JUMPDEST PUSH2 0x50D JUMP JUMPDEST PUSH1 0x37 SLOAD PUSH2 0x10F SWAP1 PUSH1 0x1 PUSH1 0x1 PUSH1 0xA0 SHL SUB AND DUP2 JUMP JUMPDEST PUSH1 0x40 MLOAD PUSH1 0x1 PUSH1 0x1 PUSH1 0xA0 SHL SUB SWAP1 SWAP2 AND DUP2 MSTORE PUSH1 0x20 ADD JUMPDEST PUSH1 0x40 MLOAD DUP1 SWAP2 SUB SWAP1 RETURN JUMPDEST PUSH2 0x13F PUSH2 0x13A CALLDATASIZE PUSH1 0x4 PUSH2 0xC0D JUMP JUMPDEST PUSH2 0x7AC JUMP JUMPDEST PUSH1 0x40 MLOAD SWAP1 DUP2 MSTORE PUSH1 0x20 ADD PUSH2 0x123 JUMP JUMPDEST PUSH2 0xC1 PUSH2 0x15B CALLDATASIZE PUSH1 0x4 PUSH2 0xCB5 JUMP JUMPDEST PUSH2 0x80D JUMP JUMPDEST PUSH2 0x13F PUSH2 0x16E CALLDATASIZE PUSH1 0x4 PUSH2 0xC0D JUMP JUMPDEST PUSH2 0x873 JUMP JUMPDEST PUSH2 0x13F PUSH2 0x181 CALLDATASIZE PUSH1 0x4 PUSH2 0xC93 JUMP JUMPDEST PUSH2 0x8D8 JUMP JUMPDEST PUSH2 0xC1 PUSH2 0x194 CALLDATASIZE PUSH1 0x4 PUSH2 0xCD8 JUMP JUMPDEST PUSH2 0x9E5 JUMP JUMPDEST PUSH1 0x36 SLOAD PUSH2 0x10F SWAP1 PUSH1 0x1 PUSH1 0x1 PUSH1 0xA0 SHL SUB AND DUP2 JUMP JUMPDEST PUSH1 0x37 SLOAD PUSH1 0x1 PUSH1 0x1 PUSH1 0xA0 SHL SUB AND CALLER EQ PUSH2 0x1DF JUMPI PUSH1 0x40 MLOAD PUSH3 0x461BCD PUSH1 0xE5 SHL DUP2 MSTORE PUSH1 0x4 ADD PUSH2 0x1D6 SWAP1 PUSH2 0xD01 JUMP JUMPDEST PUSH1 0x40 MLOAD DUP1 SWAP2 SUB SWAP1 REVERT JUMPDEST PUSH2 0x1EC PUSH1 0x24 DUP4 PUSH1 0x6 PUSH2 0xA87 JUMP JUMPDEST POP PUSH2 0x1FA PUSH1 0x2A DUP3 PUSH1 0x6 PUSH2 0xA87 JUMP JUMPDEST POP PUSH1 0x40 MLOAD CALLER SWAP1 PUSH32 0x3CC6C2FEA9FDA6F13B398F1CEE3A08F13E567AC2DECD018DAD7A3E9E9B6FDE8D SWAP1 PUSH1 0x0 SWAP1 LOG2 POP POP JUMP JUMPDEST CALLER PUSH1 0x0 SWAP1 DUP2 MSTORE PUSH1 0x38 PUSH1 0x20 MSTORE PUSH1 0x40 SWAP1 KECCAK256 SLOAD DUP2 LT PUSH2 0x27E JUMPI PUSH1 0x40 MLOAD PUSH3 0x461BCD PUSH1 0xE5 SHL DUP2 MSTORE PUSH1 0x20 PUSH1 0x4 DUP3 ADD MSTORE PUSH1 0x13 PUSH1 0x24 DUP3 ADD MSTORE PUSH19 0x92DCECC2D8D2C840E6E8C2D6CA40D2DCC8CAF PUSH1 0x6B SHL PUSH1 0x44 DUP3 ADD MSTORE PUSH1 0x64 ADD PUSH2 0x1D6 JUMP JUMPDEST CALLER PUSH1 0x0 SWAP1 DUP2 MSTORE PUSH1 0x38 PUSH1 0x20 MSTORE PUSH1 0x40 DUP2 KECCAK256 DUP1 SLOAD DUP4 SWAP1 DUP2 LT PUSH2 0x29F JUMPI PUSH2 0x29F PUSH2 0xD38 JUMP JUMPDEST PUSH1 0x0 SWAP2 DUP3 MSTORE PUSH1 0x20 SWAP1 SWAP2 KECCAK256 PUSH1 0x5 SWAP1 SWAP2 MUL ADD PUSH1 0x4 DUP2 ADD SLOAD SWAP1 SWAP2 POP PUSH1 0xFF AND ISZERO PUSH2 0x307 JUMPI PUSH1 0x40 MLOAD PUSH3 0x461BCD PUSH1 0xE5 SHL DUP2 MSTORE PUSH1 0x20 PUSH1 0x4 DUP3 ADD MSTORE PUSH1 0x17 PUSH1 0x24 DUP3 ADD MSTORE PUSH32 0x5374616B6520616C72656164792077697468647261776E000000000000000000 PUSH1 0x44 DUP3 ADD MSTORE PUSH1 0x64 ADD PUSH2 0x1D6 JUMP JUMPDEST DUP1 PUSH1 0x2 ADD SLOAD DUP2 PUSH1 0x1 ADD SLOAD PUSH2 0x31B SWAP2 SWAP1 PUSH2 0xD64 JUMP JUMPDEST TIMESTAMP LT ISZERO PUSH2 0x36A JUMPI PUSH1 0x40 MLOAD PUSH3 0x461BCD PUSH1 0xE5 SHL DUP2 MSTORE PUSH1 0x20 PUSH1 0x4 DUP3 ADD MSTORE PUSH1 0x1E PUSH1 0x24 DUP3 ADD MSTORE PUSH32 0x5374616B6520706572696F64206E6F742079657420636F6D706C657465640000 PUSH1 0x44 DUP3 ADD MSTORE PUSH1 0x64 ADD PUSH2 0x1D6 JUMP JUMPDEST PUSH1 0x0 PUSH2 0x375 DUP4 PUSH2 0x873 JUMP JUMPDEST SWAP1 POP PUSH1 0x0 DUP2 DUP4 PUSH1 0x0 ADD SLOAD PUSH2 0x389 SWAP2 SWAP1 PUSH2 0xD64 JUMP JUMPDEST PUSH1 0x4 DUP5 DUP2 ADD DUP1 SLOAD PUSH1 0xFF NOT AND PUSH1 0x1 OR SWAP1 SSTORE PUSH1 0x36 SLOAD PUSH1 0x37 SLOAD PUSH1 0x40 MLOAD PUSH4 0x23B872DD PUSH1 0xE0 SHL DUP2 MSTORE PUSH1 0x1 PUSH1 0x1 PUSH1 0xA0 SHL SUB SWAP2 DUP3 AND SWAP4 DUP2 ADD SWAP4 SWAP1 SWAP4 MSTORE CALLER PUSH1 0x24 DUP5 ADD MSTORE PUSH1 0x44 DUP4 ADD DUP5 SWAP1 MSTORE SWAP3 SWAP4 POP SWAP2 SWAP1 SWAP2 AND SWAP1 PUSH4 0x23B872DD SWAP1 PUSH1 0x64 ADD PUSH1 0x20 PUSH1 0x40 MLOAD DUP1 DUP4 SUB DUP2 PUSH1 0x0 DUP8 GAS CALL ISZERO DUP1 ISZERO PUSH2 0x3FB JUMPI RETURNDATASIZE PUSH1 0x0 DUP1 RETURNDATACOPY RETURNDATASIZE PUSH1 0x0 REVERT JUMPDEST POP POP POP POP PUSH1 0x40 MLOAD RETURNDATASIZE PUSH1 0x1F NOT PUSH1 0x1F DUP3 ADD AND DUP3 ADD DUP1 PUSH1 0x40 MSTORE POP DUP2 ADD SWAP1 PUSH2 0x41F SWAP2 SWAP1 PUSH2 0xD77 JUMP JUMPDEST PUSH2 0x463 JUMPI PUSH1 0x40 MLOAD PUSH3 0x461BCD PUSH1 0xE5 SHL DUP2 MSTORE PUSH1 0x20 PUSH1 0x4 DUP3 ADD MSTORE PUSH1 0x15 PUSH1 0x24 DUP3 ADD MSTORE PUSH21 0x151BDAD95B881D1C985B9CD9995C8819985A5B1959 PUSH1 0x5A SHL PUSH1 0x44 DUP3 ADD MSTORE PUSH1 0x64 ADD PUSH2 0x1D6 JUMP JUMPDEST DUP3 SLOAD PUSH1 0x40 DUP1 MLOAD SWAP2 DUP3 MSTORE PUSH1 0x20 DUP3 ADD DUP5 SWAP1 MSTORE CALLER SWAP2 PUSH32 0x7FC4727E062E336010F2C282598EF5F14FACB3DE68CF8195C2F23E1454B2B74E SWAP2 ADD JUMPDEST PUSH1 0x40 MLOAD DUP1 SWAP2 SUB SWAP1 LOG2 POP POP POP POP JUMP JUMPDEST PUSH1 0x37 SLOAD PUSH1 0x1 PUSH1 0x1 PUSH1 0xA0 SHL SUB AND CALLER EQ PUSH2 0x4D1 JUMPI PUSH1 0x40 MLOAD PUSH3 0x461BCD PUSH1 0xE5 SHL DUP2 MSTORE PUSH1 0x4 ADD PUSH2 0x1D6 SWAP1 PUSH2 0xD01 JUMP JUMPDEST PUSH2 0x4DE PUSH1 0x0 DUP3 PUSH1 0x6 PUSH2 0xAC5 JUMP JUMPDEST POP PUSH1 0x40 MLOAD CALLER SWAP1 PUSH32 0xFA09AED9DC72243398D7E1D30A4758F73431601C09D8558889A859CE32B018CD SWAP1 PUSH1 0x0 SWAP1 LOG2 POP JUMP JUMPDEST PUSH1 0x0 DUP3 GT PUSH2 0x55D JUMPI PUSH1 0x40 MLOAD PUSH3 0x461BCD PUSH1 0xE5 SHL DUP2 MSTORE PUSH1 0x20 PUSH1 0x4 DUP3 ADD MSTORE PUSH1 0x1D PUSH1 0x24 DUP3 ADD MSTORE PUSH32 0x416D6F756E74206D7573742062652067726561746572207468616E2030000000 PUSH1 0x44 DUP3 ADD MSTORE PUSH1 0x64 ADD PUSH2 0x1D6 JUMP JUMPDEST PUSH1 0x0 PUSH2 0x568 DUP4 PUSH2 0x7AC JUMP JUMPDEST SWAP1 POP PUSH1 0x0 DUP2 SLT ISZERO PUSH2 0x5BB JUMPI PUSH1 0x40 MLOAD PUSH3 0x461BCD PUSH1 0xE5 SHL DUP2 MSTORE PUSH1 0x20 PUSH1 0x4 DUP3 ADD MSTORE PUSH1 0x1F PUSH1 0x24 DUP3 ADD MSTORE PUSH32 0x416D6F756E7420646F6573206E6F742066697420616E7920627261636B657400 PUSH1 0x44 DUP3 ADD MSTORE PUSH1 0x64 ADD PUSH2 0x1D6 JUMP JUMPDEST PUSH1 0x0 PUSH2 0x5C7 DUP5 DUP5 PUSH2 0x8D8 JUMP JUMPDEST SWAP1 POP PUSH1 0x0 DUP2 GT PUSH2 0x607 JUMPI PUSH1 0x40 MLOAD PUSH3 0x461BCD PUSH1 0xE5 SHL DUP2 MSTORE PUSH1 0x20 PUSH1 0x4 DUP3 ADD MSTORE PUSH1 0xB PUSH1 0x24 DUP3 ADD MSTORE PUSH11 0x24B73B30B634B21020A829 PUSH1 0xA9 SHL PUSH1 0x44 DUP3 ADD MSTORE PUSH1 0x64 ADD PUSH2 0x1D6 JUMP JUMPDEST PUSH1 0x36 SLOAD PUSH1 0x37 SLOAD PUSH1 0x40 MLOAD PUSH4 0x23B872DD PUSH1 0xE0 SHL DUP2 MSTORE CALLER PUSH1 0x4 DUP3 ADD MSTORE PUSH1 0x1 PUSH1 0x1 PUSH1 0xA0 SHL SUB SWAP2 DUP3 AND PUSH1 0x24 DUP3 ADD MSTORE PUSH1 0x44 DUP2 ADD DUP8 SWAP1 MSTORE SWAP2 AND SWAP1 PUSH4 0x23B872DD SWAP1 PUSH1 0x64 ADD PUSH1 0x20 PUSH1 0x40 MLOAD DUP1 DUP4 SUB DUP2 PUSH1 0x0 DUP8 GAS CALL ISZERO DUP1 ISZERO PUSH2 0x662 JUMPI RETURNDATASIZE PUSH1 0x0 DUP1 RETURNDATACOPY RETURNDATASIZE PUSH1 0x0 REVERT JUMPDEST POP POP POP POP PUSH1 0x40 MLOAD RETURNDATASIZE PUSH1 0x1F NOT PUSH1 0x1F DUP3 ADD AND DUP3 ADD DUP1 PUSH1 0x40 MSTORE POP DUP2 ADD SWAP1 PUSH2 0x686 SWAP2 SWAP1 PUSH2 0xD77 JUMP JUMPDEST PUSH2 0x6CA JUMPI PUSH1 0x40 MLOAD PUSH3 0x461BCD PUSH1 0xE5 SHL DUP2 MSTORE PUSH1 0x20 PUSH1 0x4 DUP3 ADD MSTORE PUSH1 0x15 PUSH1 0x24 DUP3 ADD MSTORE PUSH21 0x151BDAD95B881D1C985B9CD9995C8819985A5B1959 PUSH1 0x5A SHL PUSH1 0x44 DUP3 ADD MSTORE PUSH1 0x64 ADD PUSH2 0x1D6 JUMP JUMPDEST CALLER PUSH1 0x0 SWAP1 DUP2 MSTORE PUSH1 0x38 PUSH1 0x20 SWAP1 DUP2 MSTORE PUSH1 0x40 SWAP2 DUP3 SWAP1 KECCAK256 DUP3 MLOAD PUSH1 0xA0 DUP2 ADD DUP5 MSTORE DUP8 DUP2 MSTORE TIMESTAMP SWAP3 DUP2 ADD SWAP3 SWAP1 SWAP3 MSTORE SWAP2 DUP2 ADD PUSH2 0x700 DUP7 PUSH3 0x278D00 PUSH2 0xD99 JUMP JUMPDEST DUP2 MSTORE PUSH1 0x20 DUP1 DUP3 ADD DUP6 SWAP1 MSTORE PUSH1 0x0 PUSH1 0x40 SWAP3 DUP4 ADD DUP2 SWAP1 MSTORE DUP5 SLOAD PUSH1 0x1 DUP1 DUP3 ADD DUP8 SSTORE SWAP6 DUP3 MSTORE SWAP1 DUP3 SWAP1 KECCAK256 DUP5 MLOAD PUSH1 0x5 SWAP1 SWAP3 MUL ADD SWAP1 DUP2 SSTORE DUP4 DUP3 ADD MLOAD SWAP5 DUP2 ADD SWAP5 SWAP1 SWAP5 SSTORE DUP3 DUP3 ADD MLOAD PUSH1 0x2 DUP6 ADD SSTORE PUSH1 0x60 DUP1 DUP5 ADD MLOAD PUSH1 0x3 DUP7 ADD SSTORE PUSH1 0x80 SWAP4 DUP5 ADD MLOAD PUSH1 0x4 SWAP1 SWAP6 ADD DUP1 SLOAD PUSH1 0xFF NOT AND SWAP6 ISZERO ISZERO SWAP6 SWAP1 SWAP6 OR SWAP1 SWAP5 SSTORE DUP2 MLOAD DUP9 DUP2 MSTORE SWAP1 DUP2 ADD DUP8 SWAP1 MSTORE TIMESTAMP SWAP2 DUP2 ADD SWAP2 SWAP1 SWAP2 MSTORE SWAP2 DUP3 ADD DUP4 SWAP1 MSTORE CALLER SWAP2 PUSH32 0x9CFD25589D1EB8AD71E342A86A8524E83522E3936C0803048C08F6D9AD974F40 SWAP2 ADD PUSH2 0x499 JUMP JUMPDEST PUSH1 0x0 DUP1 JUMPDEST PUSH1 0x6 DUP2 LT ISZERO PUSH2 0x803 JUMPI PUSH1 0x24 DUP2 PUSH1 0x6 DUP2 LT PUSH2 0x7CC JUMPI PUSH2 0x7CC PUSH2 0xD38 JUMP JUMPDEST ADD SLOAD DUP4 LT ISZERO DUP1 ISZERO PUSH2 0x7F0 JUMPI POP PUSH1 0x2A DUP2 PUSH1 0x6 DUP2 LT PUSH2 0x7EB JUMPI PUSH2 0x7EB PUSH2 0xD38 JUMP JUMPDEST ADD SLOAD DUP4 LT JUMPDEST ISZERO PUSH2 0x7FB JUMPI SWAP3 SWAP2 POP POP JUMP JUMPDEST PUSH1 0x1 ADD PUSH2 0x7B0 JUMP JUMPDEST POP PUSH1 0x0 NOT SWAP3 SWAP2 POP POP JUMP JUMPDEST PUSH1 0x37 SLOAD PUSH1 0x1 PUSH1 0x1 PUSH1 0xA0 SHL SUB AND CALLER EQ PUSH2 0x837 JUMPI PUSH1 0x40 MLOAD PUSH3 0x461BCD PUSH1 0xE5 SHL DUP2 MSTORE PUSH1 0x4 ADD PUSH2 0x1D6 SWAP1 PUSH2 0xD01 JUMP JUMPDEST PUSH2 0x844 PUSH1 0x30 DUP3 PUSH1 0x6 PUSH2 0xA87 JUMP JUMPDEST POP PUSH1 0x40 MLOAD CALLER SWAP1 PUSH32 0xFFC95D0F0B575640B8B14170AA98A6B8FA79357E756BEFDED33300C4CF2BC9F0 SWAP1 PUSH1 0x0 SWAP1 LOG2 POP JUMP JUMPDEST CALLER PUSH1 0x0 SWAP1 DUP2 MSTORE PUSH1 0x38 PUSH1 0x20 MSTORE PUSH1 0x40 DUP2 KECCAK256 DUP1 SLOAD DUP3 SWAP2 SWAP1 DUP5 SWAP1 DUP2 LT PUSH2 0x897 JUMPI PUSH2 0x897 PUSH2 0xD38 JUMP JUMPDEST SWAP1 PUSH1 0x0 MSTORE PUSH1 0x20 PUSH1 0x0 KECCAK256 SWAP1 PUSH1 0x5 MUL ADD SWAP1 POP PUSH1 0x0 PUSH8 0xDE0B6B3A7640000 DUP3 PUSH1 0x3 ADD SLOAD DUP4 PUSH1 0x0 ADD SLOAD PUSH2 0x8C6 SWAP2 SWAP1 PUSH2 0xD99 JUMP JUMPDEST PUSH2 0x8D0 SWAP2 SWAP1 PUSH2 0xDB0 JUMP JUMPDEST SWAP5 SWAP4 POP POP POP POP JUMP JUMPDEST PUSH1 0x0 DUP1 PUSH2 0x8E4 DUP5 PUSH2 0x7AC JUMP JUMPDEST SWAP1 POP PUSH1 0x0 DUP2 SLT ISZERO PUSH2 0x92E JUMPI PUSH1 0x40 MLOAD PUSH3 0x461BCD PUSH1 0xE5 SHL DUP2 MSTORE PUSH1 0x20 PUSH1 0x4 DUP3 ADD MSTORE PUSH1 0x14 PUSH1 0x24 DUP3 ADD MSTORE PUSH20 0x125B9D985B1A59081CDD185AD948185B5BDD5B9D PUSH1 0x62 SHL PUSH1 0x44 DUP3 ADD MSTORE PUSH1 0x64 ADD PUSH2 0x1D6 JUMP JUMPDEST PUSH1 0x0 DUP1 DUP1 JUMPDEST PUSH1 0x6 DUP2 LT ISZERO PUSH2 0x96B JUMPI DUP6 PUSH1 0x30 DUP3 PUSH1 0x6 DUP2 LT PUSH2 0x950 JUMPI PUSH2 0x950 PUSH2 0xD38 JUMP JUMPDEST ADD SLOAD SUB PUSH2 0x963 JUMPI DUP1 SWAP3 POP PUSH1 0x1 SWAP2 POP PUSH2 0x96B JUMP JUMPDEST PUSH1 0x1 ADD PUSH2 0x933 JUMP JUMPDEST POP DUP1 PUSH2 0x9AF JUMPI PUSH1 0x40 MLOAD PUSH3 0x461BCD PUSH1 0xE5 SHL DUP2 MSTORE PUSH1 0x20 PUSH1 0x4 DUP3 ADD MSTORE PUSH1 0x13 PUSH1 0x24 DUP3 ADD MSTORE PUSH19 0x92DCECC2D8D2C840E6E8C2D6CA40DADEDCE8D PUSH1 0x6B SHL PUSH1 0x44 DUP3 ADD MSTORE PUSH1 0x64 ADD PUSH2 0x1D6 JUMP JUMPDEST PUSH1 0x0 DUP4 PUSH1 0x6 DUP2 LT PUSH2 0x9C2 JUMPI PUSH2 0x9C2 PUSH2 0xD38 JUMP JUMPDEST PUSH1 0x6 MUL ADD DUP3 PUSH1 0x6 DUP2 LT PUSH2 0x9D7 JUMPI PUSH2 0x9D7 PUSH2 0xD38 JUMP JUMPDEST ADD SLOAD SWAP4 POP POP POP POP JUMPDEST SWAP3 SWAP2 POP POP JUMP JUMPDEST PUSH1 0x37 SLOAD PUSH1 0x1 PUSH1 0x1 PUSH1 0xA0 SHL SUB AND CALLER EQ PUSH2 0xA0F JUMPI PUSH1 0x40 MLOAD PUSH3 0x461BCD PUSH1 0xE5 SHL DUP2 MSTORE PUSH1 0x4 ADD PUSH2 0x1D6 SWAP1 PUSH2 0xD01 JUMP JUMPDEST PUSH1 0x1 PUSH1 0x1 PUSH1 0xA0 SHL SUB DUP2 AND PUSH2 0xA65 JUMPI PUSH1 0x40 MLOAD PUSH3 0x461BCD PUSH1 0xE5 SHL DUP2 MSTORE PUSH1 0x20 PUSH1 0x4 DUP3 ADD MSTORE PUSH1 0x1D PUSH1 0x24 DUP3 ADD MSTORE PUSH32 0x4E6577206F776E657220697320746865207A65726F2061646472657373000000 PUSH1 0x44 DUP3 ADD MSTORE PUSH1 0x64 ADD PUSH2 0x1D6 JUMP JUMPDEST PUSH1 0x37 DUP1 SLOAD PUSH1 0x1 PUSH1 0x1 PUSH1 0xA0 SHL SUB NOT AND PUSH1 0x1 PUSH1 0x1 PUSH1 0xA0 SHL SUB SWAP3 SWAP1 SWAP3 AND SWAP2 SWAP1 SWAP2 OR SWAP1 SSTORE JUMP JUMPDEST DUP3 PUSH1 0x6 DUP2 ADD SWAP3 DUP3 ISZERO PUSH2 0xAB5 JUMPI SWAP2 PUSH1 0x20 MUL DUP3 ADD JUMPDEST DUP3 DUP2 GT ISZERO PUSH2 0xAB5 JUMPI DUP3 MLOAD DUP3 SSTORE SWAP2 PUSH1 0x20 ADD SWAP2 SWAP1 PUSH1 0x1 ADD SWAP1 PUSH2 0xA9A JUMP JUMPDEST POP PUSH2 0xAC1 SWAP3 SWAP2 POP PUSH2 0xB0C JUMP JUMPDEST POP SWAP1 JUMP JUMPDEST PUSH1 0x24 DUP4 ADD SWAP2 DUP4 SWAP1 DUP3 ISZERO PUSH2 0xB00 JUMPI SWAP2 PUSH1 0x20 MUL DUP3 ADD JUMPDEST DUP3 DUP2 GT ISZERO PUSH2 0xB00 JUMPI DUP3 MLOAD PUSH2 0xAF0 SWAP1 DUP4 SWAP1 PUSH1 0x6 PUSH2 0xA87 JUMP JUMPDEST POP SWAP2 PUSH1 0x20 ADD SWAP2 SWAP1 PUSH1 0x6 ADD SWAP1 PUSH2 0xAD9 JUMP JUMPDEST POP PUSH2 0xAC1 SWAP3 SWAP2 POP PUSH2 0xB21 JUMP JUMPDEST JUMPDEST DUP1 DUP3 GT ISZERO PUSH2 0xAC1 JUMPI PUSH1 0x0 DUP2 SSTORE PUSH1 0x1 ADD PUSH2 0xB0D JUMP JUMPDEST DUP1 DUP3 GT ISZERO PUSH2 0xAC1 JUMPI PUSH1 0x0 PUSH2 0xB35 DUP3 DUP3 PUSH2 0xB3E JUMP JUMPDEST POP PUSH1 0x6 ADD PUSH2 0xB21 JUMP JUMPDEST POP PUSH2 0xB4D SWAP1 PUSH1 0x6 DUP2 ADD SWAP1 PUSH2 0xB0C JUMP JUMPDEST POP JUMP JUMPDEST PUSH1 0x40 MLOAD PUSH1 0xC0 DUP2 ADD PUSH8 0xFFFFFFFFFFFFFFFF DUP2 GT DUP3 DUP3 LT OR ISZERO PUSH2 0xB81 JUMPI PUSH4 0x4E487B71 PUSH1 0xE0 SHL PUSH1 0x0 MSTORE PUSH1 0x41 PUSH1 0x4 MSTORE PUSH1 0x24 PUSH1 0x0 REVERT JUMPDEST PUSH1 0x40 MSTORE SWAP1 JUMP JUMPDEST PUSH1 0x0 DUP3 PUSH1 0x1F DUP4 ADD SLT PUSH2 0xB98 JUMPI PUSH1 0x0 DUP1 REVERT JUMPDEST PUSH2 0xBA0 PUSH2 0xB50 JUMP JUMPDEST DUP1 PUSH1 0xC0 DUP5 ADD DUP6 DUP2 GT ISZERO PUSH2 0xBB2 JUMPI PUSH1 0x0 DUP1 REVERT JUMPDEST DUP5 JUMPDEST DUP2 DUP2 LT ISZERO PUSH2 0xBCC JUMPI DUP1 CALLDATALOAD DUP5 MSTORE PUSH1 0x20 SWAP4 DUP5 ADD SWAP4 ADD PUSH2 0xBB4 JUMP JUMPDEST POP SWAP1 SWAP6 SWAP5 POP POP POP POP POP JUMP JUMPDEST PUSH1 0x0 DUP1 PUSH2 0x180 DUP4 DUP6 SUB SLT ISZERO PUSH2 0xBEB JUMPI PUSH1 0x0 DUP1 REVERT JUMPDEST PUSH2 0xBF5 DUP5 DUP5 PUSH2 0xB87 JUMP JUMPDEST SWAP2 POP PUSH2 0xC04 DUP5 PUSH1 0xC0 DUP6 ADD PUSH2 0xB87 JUMP JUMPDEST SWAP1 POP SWAP3 POP SWAP3 SWAP1 POP JUMP JUMPDEST PUSH1 0x0 PUSH1 0x20 DUP3 DUP5 SUB SLT ISZERO PUSH2 0xC1F JUMPI PUSH1 0x0 DUP1 REVERT JUMPDEST POP CALLDATALOAD SWAP2 SWAP1 POP JUMP JUMPDEST PUSH1 0x0 PUSH2 0x480 DUP1 DUP4 DUP6 SUB SLT ISZERO PUSH2 0xC3A JUMPI PUSH1 0x0 DUP1 REVERT JUMPDEST DUP4 PUSH1 0x1F DUP5 ADD SLT PUSH2 0xC49 JUMPI PUSH1 0x0 DUP1 REVERT JUMPDEST PUSH1 0xC0 PUSH2 0xC53 PUSH2 0xB50 JUMP JUMPDEST SWAP2 DUP5 ADD SWAP2 DUP1 DUP7 DUP5 GT ISZERO PUSH2 0xC65 JUMPI PUSH1 0x0 DUP1 REVERT JUMPDEST DUP6 JUMPDEST DUP5 DUP2 LT ISZERO PUSH2 0xC88 JUMPI PUSH2 0xC79 DUP9 DUP3 PUSH2 0xB87 JUMP JUMPDEST DUP4 MSTORE PUSH1 0x20 SWAP1 SWAP3 ADD SWAP2 DUP4 ADD PUSH2 0xC67 JUMP JUMPDEST POP SWAP7 SWAP6 POP POP POP POP POP POP JUMP JUMPDEST PUSH1 0x0 DUP1 PUSH1 0x40 DUP4 DUP6 SUB SLT ISZERO PUSH2 0xCA6 JUMPI PUSH1 0x0 DUP1 REVERT JUMPDEST POP POP DUP1 CALLDATALOAD SWAP3 PUSH1 0x20 SWAP1 SWAP2 ADD CALLDATALOAD SWAP2 POP JUMP JUMPDEST PUSH1 0x0 PUSH1 0xC0 DUP3 DUP5 SUB SLT ISZERO PUSH2 0xCC7 JUMPI PUSH1 0x0 DUP1 REVERT JUMPDEST PUSH2 0xCD1 DUP4 DUP4 PUSH2 0xB87 JUMP JUMPDEST SWAP4 SWAP3 POP POP POP JUMP JUMPDEST PUSH1 0x0 PUSH1 0x20 DUP3 DUP5 SUB SLT ISZERO PUSH2 0xCEA JUMPI PUSH1 0x0 DUP1 REVERT JUMPDEST DUP2 CALLDATALOAD PUSH1 0x1 PUSH1 0x1 PUSH1 0xA0 SHL SUB DUP2 AND DUP2 EQ PUSH2 0xCD1 JUMPI PUSH1 0x0 DUP1 REVERT JUMPDEST PUSH1 0x20 DUP1 DUP3 MSTORE PUSH1 0x17 SWAP1 DUP3 ADD MSTORE PUSH32 0x43616C6C6572206973206E6F7420746865206F776E6572000000000000000000 PUSH1 0x40 DUP3 ADD MSTORE PUSH1 0x60 ADD SWAP1 JUMP JUMPDEST PUSH4 0x4E487B71 PUSH1 0xE0 SHL PUSH1 0x0 MSTORE PUSH1 0x32 PUSH1 0x4 MSTORE PUSH1 0x24 PUSH1 0x0 REVERT JUMPDEST PUSH4 0x4E487B71 PUSH1 0xE0 SHL PUSH1 0x0 MSTORE PUSH1 0x11 PUSH1 0x4 MSTORE PUSH1 0x24 PUSH1 0x0 REVERT JUMPDEST DUP1 DUP3 ADD DUP1 DUP3 GT ISZERO PUSH2 0x9DF JUMPI PUSH2 0x9DF PUSH2 0xD4E JUMP JUMPDEST PUSH1 0x0 PUSH1 0x20 DUP3 DUP5 SUB SLT ISZERO PUSH2 0xD89 JUMPI PUSH1 0x0 DUP1 REVERT JUMPDEST DUP2 MLOAD DUP1 ISZERO ISZERO DUP2 EQ PUSH2 0xCD1 JUMPI PUSH1 0x0 DUP1 REVERT JUMPDEST DUP1 DUP3 MUL DUP2 ISZERO DUP3 DUP3 DIV DUP5 EQ OR PUSH2 0x9DF JUMPI PUSH2 0x9DF PUSH2 0xD4E JUMP JUMPDEST PUSH1 0x0 DUP3 PUSH2 0xDCD JUMPI PUSH4 0x4E487B71 PUSH1 0xE0 SHL PUSH1 0x0 MSTORE PUSH1 0x12 PUSH1 0x4 MSTORE PUSH1 0x24 PUSH1 0x0 REVERT JUMPDEST POP DIV SWAP1 JUMP INVALID LOG2 PUSH5 0x6970667358 0x22 SLT KECCAK256 0xDD MOD 0xCF 0x23 LOG3 PUSH21 0x5C4F2CD9231174A8F7F328E677C614E467392B21BC 0xCE SIGNEXTEND 0xBE 0xD2 CALL PUSH5 0x736F6C6343 STOP ADDMOD XOR STOP CALLER "
        },
        "methodIdentifiers": {
          "calculateInterest(uint256)": "a57475e0",
          "getApr(uint256,uint256)": "c348b028",
          "getIndex(uint256)": "8e7cb6e1",
          "owner()": "8da5cb5b",
          "stake(uint256,uint256)": "7b0472f0",
          "token()": "fc0c546a",
          "transferOwnership(address)": "f2fde38b",
          "unstake(uint256)": "2e17de78",
          "updateAPR(uint256[6][6])": "5651cc03",
          "updateMinMaxAmounts(uint256[6],uint256[6])": "0da2728c",
          "updateStakeMonths(uint256[6])": "8f25824d"
        }
      }
    }
  }
}