{
  "_format": "hh-sol-artifact-1",
  "contractName": "ICOContract",
  "sourceName": "contracts/Ico.sol",
  "abi": [
    {
      "inputs": [
        {
          "internalType": "address",
          "name": "_tokenSale",
          "type": "address"
        },
        {
          "internalType": "address",
          "name": "_tokenAccepted",
          "type": "address"
        },
        {
          "internalType": "uint256",
          "name": "_tokenPrice",
          "type": "uint256"
        },
        {
          "internalType": "uint256",
          "name": "_minAmount",
          "type": "uint256"
        },
        {
          "internalType": "uint256",
          "name": "_maxAmount",
          "type": "uint256"
        },
        {
          "internalType": "uint256",
          "name": "_startTime",
          "type": "uint256"
        },
        {
          "internalType": "uint256",
          "name": "_durationInDays",
          "type": "uint256"
        }
      ],
      "stateMutability": "nonpayable",
      "type": "constructor"
    },
    {
      "anonymous": false,
      "inputs": [
        {
          "indexed": true,
          "internalType": "address",
          "name": "previousOwner",
          "type": "address"
        },
        {
          "indexed": true,
          "internalType": "address",
          "name": "newOwner",
          "type": "address"
        }
      ],
      "name": "OwnershipTransferred",
      "type": "event"
    },
    {
      "anonymous": false,
      "inputs": [
        {
          "indexed": false,
          "internalType": "uint256",
          "name": "price",
          "type": "uint256"
        }
      ],
      "name": "PriceUpdated",
      "type": "event"
    },
    {
      "anonymous": false,
      "inputs": [
        {
          "indexed": true,
          "internalType": "address",
          "name": "buyer",
          "type": "address"
        },
        {
          "indexed": false,
          "internalType": "uint256",
          "name": "amount",
          "type": "uint256"
        },
        {
          "indexed": false,
          "internalType": "uint256",
          "name": "totalPrice",
          "type": "uint256"
        }
      ],
      "name": "TokensPurchased",
      "type": "event"
    },
    {
      "anonymous": false,
      "inputs": [
        {
          "indexed": true,
          "internalType": "address",
          "name": "buyer",
          "type": "address"
        },
        {
          "indexed": false,
          "internalType": "uint256",
          "name": "amount",
          "type": "uint256"
        }
      ],
      "name": "TokensWithdrawn",
      "type": "event"
    },
    {
      "inputs": [
        {
          "internalType": "address",
          "name": "",
          "type": "address"
        }
      ],
      "name": "balances",
      "outputs": [
        {
          "internalType": "uint256",
          "name": "",
          "type": "uint256"
        }
      ],
      "stateMutability": "view",
      "type": "function"
    },
    {
      "inputs": [
        {
          "internalType": "uint256",
          "name": "_amount",
          "type": "uint256"
        }
      ],
      "name": "buyTokens",
      "outputs": [],
      "stateMutability": "payable",
      "type": "function"
    },
    {
      "inputs": [
        {
          "internalType": "uint256",
          "name": "_minAmount",
          "type": "uint256"
        },
        {
          "internalType": "uint256",
          "name": "_maxAmount",
          "type": "uint256"
        }
      ],
      "name": "changePrice",
      "outputs": [],
      "stateMutability": "nonpayable",
      "type": "function"
    },
    {
      "inputs": [
        {
          "internalType": "uint256",
          "name": "_startTime",
          "type": "uint256"
        },
        {
          "internalType": "uint256",
          "name": "_endTime",
          "type": "uint256"
        }
      ],
      "name": "changeSale",
      "outputs": [],
      "stateMutability": "nonpayable",
      "type": "function"
    },
    {
      "inputs": [],
      "name": "endTime",
      "outputs": [
        {
          "internalType": "uint256",
          "name": "",
          "type": "uint256"
        }
      ],
      "stateMutability": "view",
      "type": "function"
    },
    {
      "inputs": [],
      "name": "maxAmount",
      "outputs": [
        {
          "internalType": "uint256",
          "name": "",
          "type": "uint256"
        }
      ],
      "stateMutability": "view",
      "type": "function"
    },
    {
      "inputs": [],
      "name": "minAmount",
      "outputs": [
        {
          "internalType": "uint256",
          "name": "",
          "type": "uint256"
        }
      ],
      "stateMutability": "view",
      "type": "function"
    },
    {
      "inputs": [],
      "name": "owner",
      "outputs": [
        {
          "internalType": "address",
          "name": "",
          "type": "address"
        }
      ],
      "stateMutability": "view",
      "type": "function"
    },
    {
      "inputs": [
        {
          "internalType": "uint256",
          "name": "_newPrice",
          "type": "uint256"
        }
      ],
      "name": "setTokenPrice",
      "outputs": [],
      "stateMutability": "nonpayable",
      "type": "function"
    },
    {
      "inputs": [],
      "name": "startTime",
      "outputs": [
        {
          "internalType": "uint256",
          "name": "",
          "type": "uint256"
        }
      ],
      "stateMutability": "view",
      "type": "function"
    },
    {
      "inputs": [],
      "name": "tokenAccepted",
      "outputs": [
        {
          "internalType": "contract ERC20",
          "name": "",
          "type": "address"
        }
      ],
      "stateMutability": "view",
      "type": "function"
    },
    {
      "inputs": [],
      "name": "tokenForSale",
      "outputs": [
        {
          "internalType": "contract ERC20",
          "name": "",
          "type": "address"
        }
      ],
      "stateMutability": "view",
      "type": "function"
    },
    {
      "inputs": [],
      "name": "tokenPrice",
      "outputs": [
        {
          "internalType": "uint256",
          "name": "",
          "type": "uint256"
        }
      ],
      "stateMutability": "view",
      "type": "function"
    },
    {
      "inputs": [],
      "name": "tokenSold",
      "outputs": [
        {
          "internalType": "uint256",
          "name": "",
          "type": "uint256"
        }
      ],
      "stateMutability": "view",
      "type": "function"
    },
    {
      "inputs": [],
      "name": "withdrawTokensAccepted",
      "outputs": [],
      "stateMutability": "nonpayable",
      "type": "function"
    }
  ],
  "bytecode": "0x608060405234801561001057600080fd5b5060405162000d9738038062000d97833981016040819052610031916100c2565b60008054336001600160a01b0319918216179091556007805482166001600160a01b038a81169190911790915560088054909216908816179055600385905560058490556006839055600182905561008c816201518061013a565b6100969083610157565b6002555061016a95505050505050565b80516001600160a01b03811681146100bd57600080fd5b919050565b600080600080600080600060e0888a0312156100dd57600080fd5b6100e6886100a6565b96506100f4602089016100a6565b604089015160608a015160808b015160a08c015160c0909c01519a9d939c50919a90999198509650945092505050565b634e487b7160e01b600052601160045260246000fd5b808202811582820484141761015157610151610124565b92915050565b8082018082111561015157610151610124565b610c1d806200017a6000396000f3fe6080604052600436106100e85760003560e01c806378e979251161008a5780639b2cb5d8116100595780639b2cb5d814610248578063b3de019c1461025e578063cd7878781461027e578063e14bac081461029e57600080fd5b806378e97925146101dc5780637ff9b596146101f2578063827f38cf146102085780638da5cb5b1461022857600080fd5b80633970f698116100c65780633970f69814610158578063519ee19e146101905780635f48f393146101a65780636a61e5fc146101bc57600080fd5b806327e235e3146100ed5780633197cbb61461012d5780633610724e14610143575b600080fd5b3480156100f957600080fd5b5061011a61010836600461097d565b60096020526000908152604090205481565b6040519081526020015b60405180910390f35b34801561013957600080fd5b5061011a60025481565b6101566101513660046109ad565b6102b3565b005b34801561016457600080fd5b50600754610178906001600160a01b031681565b6040516001600160a01b039091168152602001610124565b34801561019c57600080fd5b5061011a60045481565b3480156101b257600080fd5b5061011a60065481565b3480156101c857600080fd5b506101566101d73660046109ad565b610798565b3480156101e857600080fd5b5061011a60015481565b3480156101fe57600080fd5b5061011a60035481565b34801561021457600080fd5b50600854610178906001600160a01b031681565b34801561023457600080fd5b50600054610178906001600160a01b031681565b34801561025457600080fd5b5061011a60055481565b34801561026a57600080fd5b506101566102793660046109c6565b6107fd565b34801561028a57600080fd5b506101566102993660046109c6565b610832565b3480156102aa57600080fd5b50610156610867565b60015442101580156102c757506002544211155b61030c5760405162461bcd60e51b815260206004820152601160248201527049434f206973206e6f742061637469766560781b60448201526064015b60405180910390fd5b60055481101561036a5760405162461bcd60e51b815260206004820152602360248201527f416d6f756e742069732062656c6f77206d696e696d756d20746f6b656e20707260448201526269636560e81b6064820152608401610303565b6006548111156103c75760405162461bcd60e51b815260206004820152602260248201527f416d6f756e742065786365656473206d6178696d756d20746f6b656e20707269604482015261636560f01b6064820152608401610303565b600854604051636eb1769f60e11b815233600482015230602482015282916001600160a01b03169063dd62ed3e90604401602060405180830381865afa158015610415573d6000803e3d6000fd5b505050506040513d601f19601f8201168201806040525081019061043991906109e8565b111561047b5760405162461bcd60e51b8152602060048201526011602482015270105b1b1bddd85b98d9481b9bdd081cd95d607a1b6044820152606401610303565b6008546000546040516323b872dd60e01b81523360048201526001600160a01b039182166024820152604481018490529116906323b872dd906064016020604051808303816000875af11580156104d6573d6000803e3d6000fd5b505050506040513d601f19601f820116820180604052508101906104fa9190610a01565b6105385760405162461bcd60e51b815260206004820152600f60248201526e151c985b9cd9995c8819985a5b1959608a1b6044820152606401610303565b6003546007546040805163313ce56760e01b81529051600093926001600160a01b03169163313ce5679160048083019260209291908290030181865afa158015610586573d6000803e3d6000fd5b505050506040513d601f19601f820116820180604052508101906105aa9190610a23565b6105b590600a610b42565b6105bf9084610b51565b6105c99190610b68565b600754600054604051636eb1769f60e11b81526001600160a01b039182166004820152306024820152929350839291169063dd62ed3e90604401602060405180830381865afa158015610620573d6000803e3d6000fd5b505050506040513d601f19601f8201168201806040525081019061064491906109e8565b101561069e5760405162461bcd60e51b8152602060048201526024808201527f4e6f7420656e6f75676820746f6b656e7320617661696c61626c6520666f722060448201526373616c6560e01b6064820152608401610303565b6007546000546040516323b872dd60e01b81526001600160a01b039182166004820152336024820152604481018490529116906323b872dd906064016020604051808303816000875af11580156106f9573d6000803e3d6000fd5b505050506040513d601f19601f8201168201806040525081019061071d9190610a01565b5080600460008282546107309190610b8a565b90915550503360009081526009602052604081208054839290610754908490610b8a565b9091555050604080518281526020810184905233917f8fafebcaf9d154343dad25669bfa277f4fbacd7ac6b0c4fed522580e040a0f33910160405180910390a25050565b6000546001600160a01b031633146107c25760405162461bcd60e51b815260040161030390610b9d565b60038190556040518181527f66cbca4f3c64fecf1dcb9ce094abcf7f68c3450a1d4e3a8e917dd621edb4ebe09060200160405180910390a150565b6000546001600160a01b031633146108275760405162461bcd60e51b815260040161030390610b9d565b600591909155600655565b6000546001600160a01b0316331461085c5760405162461bcd60e51b815260040161030390610b9d565b600191909155600255565b6000546001600160a01b031633146108915760405162461bcd60e51b815260040161030390610b9d565b6008546040516370a0823160e01b81523060048201526000916001600160a01b0316906370a0823190602401602060405180830381865afa1580156108da573d6000803e3d6000fd5b505050506040513d601f19601f820116820180604052508101906108fe91906109e8565b60085460005460405163a9059cbb60e01b81526001600160a01b03918216600482015260248101849052929350169063a9059cbb906044016020604051808303816000875af1158015610955573d6000803e3d6000fd5b505050506040513d601f19601f820116820180604052508101906109799190610a01565b5050565b60006020828403121561098f57600080fd5b81356001600160a01b03811681146109a657600080fd5b9392505050565b6000602082840312156109bf57600080fd5b5035919050565b600080604083850312156109d957600080fd5b50508035926020909101359150565b6000602082840312156109fa57600080fd5b5051919050565b600060208284031215610a1357600080fd5b815180151581146109a657600080fd5b600060208284031215610a3557600080fd5b815160ff811681146109a657600080fd5b634e487b7160e01b600052601160045260246000fd5b600181815b80851115610a97578160001904821115610a7d57610a7d610a46565b80851615610a8a57918102915b93841c9390800290610a61565b509250929050565b600082610aae57506001610b3c565b81610abb57506000610b3c565b8160018114610ad15760028114610adb57610af7565b6001915050610b3c565b60ff841115610aec57610aec610a46565b50506001821b610b3c565b5060208310610133831016604e8410600b8410161715610b1a575081810a610b3c565b610b248383610a5c565b8060001904821115610b3857610b38610a46565b0290505b92915050565b60006109a660ff841683610a9f565b8082028115828204841417610b3c57610b3c610a46565b600082610b8557634e487b7160e01b600052601260045260246000fd5b500490565b80820180821115610b3c57610b3c610a46565b6020808252602a908201527f4f6e6c7920636f6e7472616374206f776e65722063616e2063616c6c207468696040820152693990333ab731ba34b7b760b11b60608201526080019056fea26469706673582212207a6b93c9c040586d8d97898f4c5b3e5642dc05204fa8c51daa1ee754c432e0d764736f6c63430008180033",
  "linkReferences": {},
  "deployedLinkReferences": {}
}